{
  "contractName": "EthStakerERC721Upgradeable",
  "abi": [
    {
      "anonymous": false,
      "inputs": [
        {
          "indexed": true,
          "internalType": "address",
          "name": "owner",
          "type": "address"
        },
        {
          "indexed": true,
          "internalType": "address",
          "name": "approved",
          "type": "address"
        },
        {
          "indexed": true,
          "internalType": "uint256",
          "name": "tokenId",
          "type": "uint256"
        }
      ],
      "name": "Approval",
      "type": "event"
    },
    {
      "anonymous": false,
      "inputs": [
        {
          "indexed": true,
          "internalType": "address",
          "name": "owner",
          "type": "address"
        },
        {
          "indexed": true,
          "internalType": "address",
          "name": "operator",
          "type": "address"
        },
        {
          "indexed": false,
          "internalType": "bool",
          "name": "approved",
          "type": "bool"
        }
      ],
      "name": "ApprovalForAll",
      "type": "event"
    },
    {
      "anonymous": false,
      "inputs": [
        {
          "indexed": false,
          "internalType": "uint256",
          "name": "_fromTokenId",
          "type": "uint256"
        },
        {
          "indexed": false,
          "internalType": "uint256",
          "name": "_toTokenId",
          "type": "uint256"
        }
      ],
      "name": "BatchMetadataUpdate",
      "type": "event"
    },
    {
      "anonymous": false,
      "inputs": [
        {
          "indexed": false,
          "internalType": "uint8",
          "name": "version",
          "type": "uint8"
        }
      ],
      "name": "Initialized",
      "type": "event"
    },
    {
      "anonymous": false,
      "inputs": [
        {
          "indexed": false,
          "internalType": "uint256",
          "name": "_tokenId",
          "type": "uint256"
        }
      ],
      "name": "MetadataUpdate",
      "type": "event"
    },
    {
      "anonymous": false,
      "inputs": [
        {
          "indexed": true,
          "internalType": "uint256",
          "name": "tokenId",
          "type": "uint256"
        },
        {
          "indexed": false,
          "internalType": "string",
          "name": "tokenURI",
          "type": "string"
        },
        {
          "indexed": false,
          "internalType": "address",
          "name": "recipient",
          "type": "address"
        }
      ],
      "name": "NFTMinted",
      "type": "event"
    },
    {
      "anonymous": false,
      "inputs": [
        {
          "indexed": true,
          "internalType": "uint256",
          "name": "burnedTokenId1",
          "type": "uint256"
        },
        {
          "indexed": true,
          "internalType": "uint256",
          "name": "burnedTokenId2",
          "type": "uint256"
        },
        {
          "indexed": true,
          "internalType": "uint256",
          "name": "newTokenId",
          "type": "uint256"
        },
        {
          "indexed": false,
          "internalType": "string",
          "name": "newTokenURI",
          "type": "string"
        }
      ],
      "name": "NFTUpgraded",
      "type": "event"
    },
    {
      "anonymous": false,
      "inputs": [
        {
          "indexed": true,
          "internalType": "address",
          "name": "previousOwner",
          "type": "address"
        },
        {
          "indexed": true,
          "internalType": "address",
          "name": "newOwner",
          "type": "address"
        }
      ],
      "name": "OwnershipTransferred",
      "type": "event"
    },
    {
      "anonymous": false,
      "inputs": [
        {
          "indexed": false,
          "internalType": "string",
          "name": "message",
          "type": "string"
        }
      ],
      "name": "TestEvent",
      "type": "event"
    },
    {
      "anonymous": false,
      "inputs": [
        {
          "indexed": true,
          "internalType": "address",
          "name": "from",
          "type": "address"
        },
        {
          "indexed": true,
          "internalType": "address",
          "name": "to",
          "type": "address"
        },
        {
          "indexed": true,
          "internalType": "uint256",
          "name": "tokenId",
          "type": "uint256"
        }
      ],
      "name": "Transfer",
      "type": "event"
    },
    {
      "inputs": [
        {
          "internalType": "address",
          "name": "to",
          "type": "address"
        },
        {
          "internalType": "uint256",
          "name": "tokenId",
          "type": "uint256"
        }
      ],
      "name": "approve",
      "outputs": [],
      "stateMutability": "nonpayable",
      "type": "function"
    },
    {
      "inputs": [
        {
          "internalType": "address",
          "name": "owner",
          "type": "address"
        }
      ],
      "name": "balanceOf",
      "outputs": [
        {
          "internalType": "uint256",
          "name": "",
          "type": "uint256"
        }
      ],
      "stateMutability": "view",
      "type": "function",
      "constant": true
    },
    {
      "inputs": [
        {
          "internalType": "uint256",
          "name": "",
          "type": "uint256"
        }
      ],
      "name": "categories",
      "outputs": [
        {
          "internalType": "string",
          "name": "directory",
          "type": "string"
        }
      ],
      "stateMutability": "view",
      "type": "function",
      "constant": true
    },
    {
      "inputs": [],
      "name": "categoriesCount",
      "outputs": [
        {
          "internalType": "uint256",
          "name": "",
          "type": "uint256"
        }
      ],
      "stateMutability": "view",
      "type": "function",
      "constant": true
    },
    {
      "inputs": [
        {
          "internalType": "uint256",
          "name": "tokenId",
          "type": "uint256"
        }
      ],
      "name": "getApproved",
      "outputs": [
        {
          "internalType": "address",
          "name": "",
          "type": "address"
        }
      ],
      "stateMutability": "view",
      "type": "function",
      "constant": true
    },
    {
      "inputs": [
        {
          "internalType": "address",
          "name": "owner",
          "type": "address"
        },
        {
          "internalType": "address",
          "name": "operator",
          "type": "address"
        }
      ],
      "name": "isApprovedForAll",
      "outputs": [
        {
          "internalType": "bool",
          "name": "",
          "type": "bool"
        }
      ],
      "stateMutability": "view",
      "type": "function",
      "constant": true
    },
    {
      "inputs": [],
      "name": "name",
      "outputs": [
        {
          "internalType": "string",
          "name": "",
          "type": "string"
        }
      ],
      "stateMutability": "view",
      "type": "function",
      "constant": true
    },
    {
      "inputs": [],
      "name": "owner",
      "outputs": [
        {
          "internalType": "address",
          "name": "",
          "type": "address"
        }
      ],
      "stateMutability": "view",
      "type": "function",
      "constant": true
    },
    {
      "inputs": [
        {
          "internalType": "uint256",
          "name": "tokenId",
          "type": "uint256"
        }
      ],
      "name": "ownerOf",
      "outputs": [
        {
          "internalType": "address",
          "name": "",
          "type": "address"
        }
      ],
      "stateMutability": "view",
      "type": "function",
      "constant": true
    },
    {
      "inputs": [],
      "name": "renounceOwnership",
      "outputs": [],
      "stateMutability": "nonpayable",
      "type": "function"
    },
    {
      "inputs": [
        {
          "internalType": "address",
          "name": "from",
          "type": "address"
        },
        {
          "internalType": "address",
          "name": "to",
          "type": "address"
        },
        {
          "internalType": "uint256",
          "name": "tokenId",
          "type": "uint256"
        }
      ],
      "name": "safeTransferFrom",
      "outputs": [],
      "stateMutability": "nonpayable",
      "type": "function"
    },
    {
      "inputs": [
        {
          "internalType": "address",
          "name": "from",
          "type": "address"
        },
        {
          "internalType": "address",
          "name": "to",
          "type": "address"
        },
        {
          "internalType": "uint256",
          "name": "tokenId",
          "type": "uint256"
        },
        {
          "internalType": "bytes",
          "name": "data",
          "type": "bytes"
        }
      ],
      "name": "safeTransferFrom",
      "outputs": [],
      "stateMutability": "nonpayable",
      "type": "function"
    },
    {
      "inputs": [
        {
          "internalType": "address",
          "name": "operator",
          "type": "address"
        },
        {
          "internalType": "bool",
          "name": "approved",
          "type": "bool"
        }
      ],
      "name": "setApprovalForAll",
      "outputs": [],
      "stateMutability": "nonpayable",
      "type": "function"
    },
    {
      "inputs": [
        {
          "internalType": "bytes4",
          "name": "interfaceId",
          "type": "bytes4"
        }
      ],
      "name": "supportsInterface",
      "outputs": [
        {
          "internalType": "bool",
          "name": "",
          "type": "bool"
        }
      ],
      "stateMutability": "view",
      "type": "function",
      "constant": true
    },
    {
      "inputs": [],
      "name": "symbol",
      "outputs": [
        {
          "internalType": "string",
          "name": "",
          "type": "string"
        }
      ],
      "stateMutability": "view",
      "type": "function",
      "constant": true
    },
    {
      "inputs": [
        {
          "internalType": "address",
          "name": "from",
          "type": "address"
        },
        {
          "internalType": "address",
          "name": "to",
          "type": "address"
        },
        {
          "internalType": "uint256",
          "name": "tokenId",
          "type": "uint256"
        }
      ],
      "name": "transferFrom",
      "outputs": [],
      "stateMutability": "nonpayable",
      "type": "function"
    },
    {
      "inputs": [
        {
          "internalType": "address",
          "name": "newOwner",
          "type": "address"
        }
      ],
      "name": "transferOwnership",
      "outputs": [],
      "stateMutability": "nonpayable",
      "type": "function"
    },
    {
      "inputs": [
        {
          "internalType": "string",
          "name": "_baseURIInit",
          "type": "string"
        },
        {
          "internalType": "address",
          "name": "_authSigner",
          "type": "address"
        }
      ],
      "name": "initialize",
      "outputs": [],
      "stateMutability": "nonpayable",
      "type": "function"
    },
    {
      "inputs": [
        {
          "internalType": "address",
          "name": "_authSigner",
          "type": "address"
        }
      ],
      "name": "setAuthSigner",
      "outputs": [],
      "stateMutability": "nonpayable",
      "type": "function"
    },
    {
      "inputs": [
        {
          "internalType": "string",
          "name": "baseURI_",
          "type": "string"
        }
      ],
      "name": "setBaseURI",
      "outputs": [],
      "stateMutability": "nonpayable",
      "type": "function"
    },
    {
      "inputs": [
        {
          "internalType": "uint256",
          "name": "tokenId",
          "type": "uint256"
        }
      ],
      "name": "tokenURI",
      "outputs": [
        {
          "internalType": "string",
          "name": "",
          "type": "string"
        }
      ],
      "stateMutability": "view",
      "type": "function",
      "constant": true
    },
    {
      "inputs": [
        {
          "internalType": "string",
          "name": "message",
          "type": "string"
        }
      ],
      "name": "test",
      "outputs": [],
      "stateMutability": "nonpayable",
      "type": "function"
    },
    {
      "inputs": [
        {
          "internalType": "string",
          "name": "_directory",
          "type": "string"
        },
        {
          "components": [
            {
              "internalType": "uint256",
              "name": "start",
              "type": "uint256"
            },
            {
              "internalType": "uint256",
              "name": "end",
              "type": "uint256"
            }
          ],
          "internalType": "struct EthStakerERC721Upgradeable.TokenRange[]",
          "name": "_ranges",
          "type": "tuple[]"
        }
      ],
      "name": "addCategory",
      "outputs": [],
      "stateMutability": "nonpayable",
      "type": "function"
    },
    {
      "inputs": [
        {
          "internalType": "uint256",
          "name": "categoryId",
          "type": "uint256"
        },
        {
          "components": [
            {
              "internalType": "uint256",
              "name": "start",
              "type": "uint256"
            },
            {
              "internalType": "uint256",
              "name": "end",
              "type": "uint256"
            }
          ],
          "internalType": "struct EthStakerERC721Upgradeable.TokenRange",
          "name": "newRange",
          "type": "tuple"
        }
      ],
      "name": "addRangeToCategory",
      "outputs": [],
      "stateMutability": "nonpayable",
      "type": "function"
    },
    {
      "inputs": [
        {
          "internalType": "uint256",
          "name": "categoryId",
          "type": "uint256"
        },
        {
          "internalType": "string",
          "name": "newDirectory",
          "type": "string"
        }
      ],
      "name": "updateCategoryDirectory",
      "outputs": [],
      "stateMutability": "nonpayable",
      "type": "function"
    },
    {
      "inputs": [
        {
          "internalType": "uint256",
          "name": "categoryId",
          "type": "uint256"
        }
      ],
      "name": "getCategoryRanges",
      "outputs": [
        {
          "components": [
            {
              "internalType": "uint256",
              "name": "start",
              "type": "uint256"
            },
            {
              "internalType": "uint256",
              "name": "end",
              "type": "uint256"
            }
          ],
          "internalType": "struct EthStakerERC721Upgradeable.TokenRange[]",
          "name": "",
          "type": "tuple[]"
        }
      ],
      "stateMutability": "view",
      "type": "function",
      "constant": true
    },
    {
      "inputs": [
        {
          "internalType": "address",
          "name": "recipient",
          "type": "address"
        },
        {
          "internalType": "uint256",
          "name": "tokenId",
          "type": "uint256"
        }
      ],
      "name": "mintTo",
      "outputs": [],
      "stateMutability": "nonpayable",
      "type": "function"
    },
    {
      "inputs": [
        {
          "internalType": "bytes",
          "name": "signature",
          "type": "bytes"
        },
        {
          "internalType": "bytes32",
          "name": "nonce",
          "type": "bytes32"
        },
        {
          "internalType": "uint256",
          "name": "tokenId",
          "type": "uint256"
        },
        {
          "internalType": "uint256",
          "name": "timestamp",
          "type": "uint256"
        }
      ],
      "name": "mintWithSignature",
      "outputs": [],
      "stateMutability": "nonpayable",
      "type": "function"
    },
    {
      "inputs": [
        {
          "internalType": "bytes",
          "name": "signature",
          "type": "bytes"
        },
        {
          "internalType": "bytes32",
          "name": "nonce",
          "type": "bytes32"
        },
        {
          "internalType": "uint256",
          "name": "tokenId1",
          "type": "uint256"
        },
        {
          "internalType": "uint256",
          "name": "tokenId2",
          "type": "uint256"
        },
        {
          "internalType": "uint256",
          "name": "newTokenId",
          "type": "uint256"
        }
      ],
      "name": "upgradeWithSignature",
      "outputs": [],
      "stateMutability": "nonpayable",
      "type": "function"
    }
  ],
  "bytecode": "0x608060405234801561001057600080fd5b5061534d806100206000396000f3fe608060405234801561001057600080fd5b50600436106101cf5760003560e01c8063715018a611610104578063a22cb465116100a2578063c87b56dd11610071578063c87b56dd146104fe578063e985e9c51461052e578063f2fde38b1461055e578063f9fbd5541461057a576101cf565b8063a22cb46514610478578063b7ccc46614610494578063b88d4fde146104b2578063c6cdbe5e146104ce576101cf565b80638176a42a116100de5780638176a42a146104045780638da5cb5b1461042057806395d89b411461043e5780639d47bc4b1461045c576101cf565b8063715018a6146103c25780637ab4339d146103cc5780637c4648b1146103e8576101cf565b80632ed6a39f1161017157806355f804b31161014b57806355f804b31461032a5780636352211e146103465780636fb161011461037657806370a0823114610392576101cf565b80632ed6a39f146102d657806342842e0e146102f2578063449a52f81461030e576101cf565b806306fdde03116101ad57806306fdde0314610250578063081812fc1461026e578063095ea7b31461029e57806323b872dd146102ba576101cf565b806301ffc9a7146101d4578063032bcecb146102045780630532bca114610234575b600080fd5b6101ee60048036038101906101e991906132ef565b610596565b6040516101fb9190613337565b60405180910390f35b61021e60048036038101906102199190613388565b6105f7565b60405161022b91906134a2565b60405180910390f35b61024e60048036038101906102499190613522565b610680565b005b6102586106cc565b60405161026591906135e8565b60405180910390f35b61028860048036038101906102839190613388565b61075e565b6040516102959190613619565b60405180910390f35b6102b860048036038101906102b39190613634565b6107a4565b005b6102d460048036038101906102cf9190613674565b6108bb565b005b6102f060048036038101906102eb919061372c565b61091b565b005b61030c60048036038101906103079190613674565b6109d8565b005b61032860048036038101906103239190613634565b6109f8565b005b610344600480360381019061033f91906138bc565b610a50565b005b610360600480360381019061035b9190613388565b610a72565b60405161036d9190613619565b60405180910390f35b610390600480360381019061038b919061395b565b610af8565b005b6103ac60048036038101906103a79190613522565b610c63565b6040516103b991906139eb565b60405180910390f35b6103ca610d1a565b005b6103e660048036038101906103e19190613a06565b610d2e565b005b61040260048036038101906103fd9190613a86565b610f42565b005b61041e60048036038101906104199190613b52565b611073565b005b61042861133a565b6040516104359190613619565b60405180910390f35b610446611364565b60405161045391906135e8565b60405180910390f35b61047660048036038101906104719190613bec565b6113f6565b005b610492600480360381019061048d9190613ca0565b611643565b005b61049c611659565b6040516104a991906139eb565b60405180910390f35b6104cc60048036038101906104c79190613d81565b61165f565b005b6104e860048036038101906104e39190613388565b6116c1565b6040516104f591906135e8565b60405180910390f35b61051860048036038101906105139190613388565b611767565b60405161052591906135e8565b60405180910390f35b61054860048036038101906105439190613e04565b61189d565b6040516105559190613337565b60405180910390f35b61057860048036038101906105739190613522565b611931565b005b610594600480360381019061058f91906138bc565b6119b4565b005b6000634906490660e01b7bffffffffffffffffffffffffffffffffffffffffffffffffffffffff1916827bffffffffffffffffffffffffffffffffffffffffffffffffffffffff191614806105f057506105ef826119ee565b5b9050919050565b606060fb6000838152602001908152602001600020600101805480602002602001604051908101604052809291908181526020016000905b828210156106755783829060005260206000209060020201604051806040016040529081600082015481526020016001820154815250508152602001906001019061062f565b505050509050919050565b610688611ad0565b8060fe60006101000a81548173ffffffffffffffffffffffffffffffffffffffff021916908373ffffffffffffffffffffffffffffffffffffffff16021790555050565b6060606580546106db90613e73565b80601f016020809104026020016040519081016040528092919081815260200182805461070790613e73565b80156107545780601f1061072957610100808354040283529160200191610754565b820191906000526020600020905b81548152906001019060200180831161073757829003601f168201915b5050505050905090565b600061076982611b4e565b6069600083815260200190815260200160002060009054906101000a900473ffffffffffffffffffffffffffffffffffffffff169050919050565b60006107af82610a72565b90508073ffffffffffffffffffffffffffffffffffffffff168373ffffffffffffffffffffffffffffffffffffffff160361081f576040517f08c379a000000000000000000000000000000000000000000000000000000000815260040161081690613f16565b60405180910390fd5b8073ffffffffffffffffffffffffffffffffffffffff1661083e611b99565b73ffffffffffffffffffffffffffffffffffffffff16148061086d575061086c81610867611b99565b61189d565b5b6108ac576040517f08c379a00000000000000000000000000000000000000000000000000000000081526004016108a390613fa8565b60405180910390fd5b6108b68383611ba1565b505050565b6108cc6108c6611b99565b82611c5a565b61090b576040517f08c379a00000000000000000000000000000000000000000000000000000000081526004016109029061403a565b60405180910390fd5b610916838383611cef565b505050565b610923611ad0565b60fc548310610967576040517f08c379a000000000000000000000000000000000000000000000000000000000815260040161095e906140a6565b60405180910390fd5b600082829050116109ad576040517f08c379a00000000000000000000000000000000000000000000000000000000081526004016109a490614112565b60405180910390fd5b818160fb600086815260200190815260200160002060000191906109d2929190613100565b50505050565b6109f38383836040518060200160405280600081525061165f565b505050565b610a00611ad0565b610a0a8282611fe8565b807f411b345259a1495602cee098e5f501eb3412e0701c10b173ecd8ba7b585974a9610a3583611767565b84604051610a44929190614132565b60405180910390a25050565b610a58611ad0565b8060fd9080519060200190610a6e929190613186565b5050565b600080610a7e83612205565b9050600073ffffffffffffffffffffffffffffffffffffffff168173ffffffffffffffffffffffffffffffffffffffff1603610aef576040517f08c379a0000000000000000000000000000000000000000000000000000000008152600401610ae6906141ae565b60405180910390fd5b80915050919050565b610b00611ad0565b60008484905011610b46576040517f08c379a0000000000000000000000000000000000000000000000000000000008152600401610b3d9061421a565b60405180910390fd5b610ba58282808060200260200160405190810160405280939291908181526020016000905b82821015610b9b57848483905060400201803603810190610b8c919061428f565b81526020019060010190610b6b565b5050505050612242565b600060fb600060fc6000815480929190610bbe906142eb565b91905055815260200190815260200160002090508484826000019190610be5929190613100565b5060005b83839050811015610c5b5781600101848483818110610c0b57610c0a614333565b5b90506040020190806001815401808255809150506001900390600052602060002090600202016000909190919091508181610c469190614466565b50508080610c53906142eb565b915050610be9565b505050505050565b60008073ffffffffffffffffffffffffffffffffffffffff168273ffffffffffffffffffffffffffffffffffffffff1603610cd3576040517f08c379a0000000000000000000000000000000000000000000000000000000008152600401610cca906144e6565b60405180910390fd5b606860008373ffffffffffffffffffffffffffffffffffffffff1673ffffffffffffffffffffffffffffffffffffffff168152602001908152602001600020549050919050565b610d22611ad0565b610d2c60006123b8565b565b60008060019054906101000a900460ff16159050808015610d5f5750600160008054906101000a900460ff1660ff16105b80610d8c5750610d6e3061247e565b158015610d8b5750600160008054906101000a900460ff1660ff16145b5b610dcb576040517f08c379a0000000000000000000000000000000000000000000000000000000008152600401610dc290614578565b60405180910390fd5b60016000806101000a81548160ff021916908360ff1602179055508015610e08576001600060016101000a81548160ff0219169083151502179055505b610e106124a1565b610e186124f2565b610e8c6040518060400160405280601681526020017f477561726469616e73206f6620746865204574686572000000000000000000008152506040518060400160405280600481526020017f474f54450000000000000000000000000000000000000000000000000000000081525061254b565b8260fd9080519060200190610ea2929190613186565b508160fe60006101000a81548173ffffffffffffffffffffffffffffffffffffffff021916908373ffffffffffffffffffffffffffffffffffffffff1602179055508015610f3d5760008060016101000a81548160ff0219169083151502179055507f7f26b83ff96e1f2b6a682f133852f6798a09c465da95921460cefb38474024986001604051610f3491906145e0565b60405180910390a15b505050565b610f4a611ad0565b60fc548210610f8e576040517f08c379a0000000000000000000000000000000000000000000000000000000008152600401610f85906140a6565b60405180910390fd5b6000600167ffffffffffffffff811115610fab57610faa613791565b5b604051908082528060200260200182016040528015610fe457816020015b610fd161320c565b815260200190600190039081610fc95790505b50905081803603810190610ff8919061428f565b8160008151811061100c5761100b614333565b5b602002602001018190525061102081612242565b60fb6000848152602001908152602001600020600101829080600181540180825580915050600190039060005260206000209060020201600090919091909150818161106c9190614466565b5050505050565b60ff600085815260200190815260200160002060009054906101000a900460ff16156110d4576040517f08c379a00000000000000000000000000000000000000000000000000000000081526004016110cb90614647565b60405180910390fd5b3373ffffffffffffffffffffffffffffffffffffffff166110f484610a72565b73ffffffffffffffffffffffffffffffffffffffff1614801561114a57503373ffffffffffffffffffffffffffffffffffffffff1661113283610a72565b73ffffffffffffffffffffffffffffffffffffffff16145b611189576040517f08c379a0000000000000000000000000000000000000000000000000000000008152600401611180906146b3565b60405180910390fd5b60006111c285338686866040516020016111a795949392919061475d565b604051602081830303815290604052805190602001206125a8565b905060006112148289898080601f016020809104026020016040519081016040528093929190818152602001838380828437600081840152601f19601f820116905080830192505050505050506125d8565b905060fe60009054906101000a900473ffffffffffffffffffffffffffffffffffffffff1673ffffffffffffffffffffffffffffffffffffffff168173ffffffffffffffffffffffffffffffffffffffff16146112a6576040517f08c379a000000000000000000000000000000000000000000000000000000000815260040161129d9061482e565b60405180910390fd5b600160ff600088815260200190815260200160002060006101000a81548160ff0219169083151502179055506112db85612695565b6112e484612695565b6112ee3384611fe8565b8284867f45b480a4367aed11cdcbf0dce5af32cf5a93bd2153f6226c76122199b24d26c961131b87611767565b60405161132891906135e8565b60405180910390a45050505050505050565b600060c960009054906101000a900473ffffffffffffffffffffffffffffffffffffffff16905090565b60606066805461137390613e73565b80601f016020809104026020016040519081016040528092919081815260200182805461139f90613e73565b80156113ec5780601f106113c1576101008083540402835291602001916113ec565b820191906000526020600020905b8154815290600101906020018083116113cf57829003601f168201915b5050505050905090565b60ff600084815260200190815260200160002060009054906101000a900460ff1615611457576040517f08c379a000000000000000000000000000000000000000000000000000000000815260040161144e90614647565b60405180910390fd5b61012c81611465919061484e565b4211156114a7576040517f08c379a000000000000000000000000000000000000000000000000000000000815260040161149e906148f0565b60405180910390fd5b60006114de843385856040516020016114c39493929190614910565b604051602081830303815290604052805190602001206125a8565b905060006115308288888080601f016020809104026020016040519081016040528093929190818152602001838380828437600081840152601f19601f820116905080830192505050505050506125d8565b905060fe60009054906101000a900473ffffffffffffffffffffffffffffffffffffffff1673ffffffffffffffffffffffffffffffffffffffff168173ffffffffffffffffffffffffffffffffffffffff16146115c2576040517f08c379a00000000000000000000000000000000000000000000000000000000081526004016115b99061482e565b60405180910390fd5b600160ff600087815260200190815260200160002060006101000a81548160ff0219169083151502179055506115f83385611fe8565b837f411b345259a1495602cee098e5f501eb3412e0701c10b173ecd8ba7b585974a961162386611767565b33604051611632929190614132565b60405180910390a250505050505050565b61165561164e611b99565b83836126e8565b5050565b60fc5481565b61167061166a611b99565b83611c5a565b6116af576040517f08c379a00000000000000000000000000000000000000000000000000000000081526004016116a69061403a565b60405180910390fd5b6116bb84848484612854565b50505050565b60fb6020528060005260406000206000915090508060000180546116e490613e73565b80601f016020809104026020016040519081016040528092919081815260200182805461171090613e73565b801561175d5780601f106117325761010080835404028352916020019161175d565b820191906000526020600020905b81548152906001019060200180831161174057829003601f168201915b5050505050905081565b6060611772826128b0565b6117b1576040517f08c379a00000000000000000000000000000000000000000000000000000000081526004016117a8906149d0565b60405180910390fd5b60006117bc836128f1565b9050600060fb600083815260200190815260200160002060000180546117e190613e73565b80601f016020809104026020016040519081016040528092919081815260200182805461180d90613e73565b801561185a5780601f1061182f5761010080835404028352916020019161185a565b820191906000526020600020905b81548152906001019060200180831161183d57829003601f168201915b50505050509050611869612a20565b8161187386612ab2565b60405160200161188593929190614ac4565b60405160208183030381529060405292505050919050565b6000606a60008473ffffffffffffffffffffffffffffffffffffffff1673ffffffffffffffffffffffffffffffffffffffff16815260200190815260200160002060008373ffffffffffffffffffffffffffffffffffffffff1673ffffffffffffffffffffffffffffffffffffffff16815260200190815260200160002060009054906101000a900460ff16905092915050565b611939611ad0565b600073ffffffffffffffffffffffffffffffffffffffff168173ffffffffffffffffffffffffffffffffffffffff16036119a8576040517f08c379a000000000000000000000000000000000000000000000000000000000815260040161199f90614b88565b60405180910390fd5b6119b1816123b8565b50565b7fe75028ff36bb6473da3731a30e1aeeae9988e2415dba2c4e91e0357955065fba816040516119e391906135e8565b60405180910390a150565b60007f80ac58cd000000000000000000000000000000000000000000000000000000007bffffffffffffffffffffffffffffffffffffffffffffffffffffffff1916827bffffffffffffffffffffffffffffffffffffffffffffffffffffffff19161480611ab957507f5b5e139f000000000000000000000000000000000000000000000000000000007bffffffffffffffffffffffffffffffffffffffffffffffffffffffff1916827bffffffffffffffffffffffffffffffffffffffffffffffffffffffff1916145b80611ac95750611ac882612b80565b5b9050919050565b611ad8611b99565b73ffffffffffffffffffffffffffffffffffffffff16611af661133a565b73ffffffffffffffffffffffffffffffffffffffff1614611b4c576040517f08c379a0000000000000000000000000000000000000000000000000000000008152600401611b4390614bf4565b60405180910390fd5b565b611b57816128b0565b611b96576040517f08c379a0000000000000000000000000000000000000000000000000000000008152600401611b8d906141ae565b60405180910390fd5b50565b600033905090565b816069600083815260200190815260200160002060006101000a81548173ffffffffffffffffffffffffffffffffffffffff021916908373ffffffffffffffffffffffffffffffffffffffff160217905550808273ffffffffffffffffffffffffffffffffffffffff16611c1483610a72565b73ffffffffffffffffffffffffffffffffffffffff167f8c5be1e5ebec7d5bd14f71427d1e84f3dd0314c0f7b2291e5b200ac8c7c3b92560405160405180910390a45050565b600080611c6683610a72565b90508073ffffffffffffffffffffffffffffffffffffffff168473ffffffffffffffffffffffffffffffffffffffff161480611ca85750611ca7818561189d565b5b80611ce657508373ffffffffffffffffffffffffffffffffffffffff16611cce8461075e565b73ffffffffffffffffffffffffffffffffffffffff16145b91505092915050565b8273ffffffffffffffffffffffffffffffffffffffff16611d0f82610a72565b73ffffffffffffffffffffffffffffffffffffffff1614611d65576040517f08c379a0000000000000000000000000000000000000000000000000000000008152600401611d5c90614c86565b60405180910390fd5b600073ffffffffffffffffffffffffffffffffffffffff168273ffffffffffffffffffffffffffffffffffffffff1603611dd4576040517f08c379a0000000000000000000000000000000000000000000000000000000008152600401611dcb90614d18565b60405180910390fd5b611de18383836001612bea565b8273ffffffffffffffffffffffffffffffffffffffff16611e0182610a72565b73ffffffffffffffffffffffffffffffffffffffff1614611e57576040517f08c379a0000000000000000000000000000000000000000000000000000000008152600401611e4e90614c86565b60405180910390fd5b6069600082815260200190815260200160002060006101000a81549073ffffffffffffffffffffffffffffffffffffffff02191690556001606860008573ffffffffffffffffffffffffffffffffffffffff1673ffffffffffffffffffffffffffffffffffffffff168152602001908152602001600020600082825403925050819055506001606860008473ffffffffffffffffffffffffffffffffffffffff1673ffffffffffffffffffffffffffffffffffffffff16815260200190815260200160002060008282540192505081905550816067600083815260200190815260200160002060006101000a81548173ffffffffffffffffffffffffffffffffffffffff021916908373ffffffffffffffffffffffffffffffffffffffff160217905550808273ffffffffffffffffffffffffffffffffffffffff168473ffffffffffffffffffffffffffffffffffffffff167fddf252ad1be2c89b69c2b068fc378daa952ba7f163c4a11628f55a4df523b3ef60405160405180910390a4611fe38383836001612bf0565b505050565b600073ffffffffffffffffffffffffffffffffffffffff168273ffffffffffffffffffffffffffffffffffffffff1603612057576040517f08c379a000000000000000000000000000000000000000000000000000000000815260040161204e90614d84565b60405180910390fd5b612060816128b0565b156120a0576040517f08c379a000000000000000000000000000000000000000000000000000000000815260040161209790614df0565b60405180910390fd5b6120ae600083836001612bea565b6120b7816128b0565b156120f7576040517f08c379a00000000000000000000000000000000000000000000000000000000081526004016120ee90614df0565b60405180910390fd5b6001606860008473ffffffffffffffffffffffffffffffffffffffff1673ffffffffffffffffffffffffffffffffffffffff16815260200190815260200160002060008282540192505081905550816067600083815260200190815260200160002060006101000a81548173ffffffffffffffffffffffffffffffffffffffff021916908373ffffffffffffffffffffffffffffffffffffffff160217905550808273ffffffffffffffffffffffffffffffffffffffff16600073ffffffffffffffffffffffffffffffffffffffff167fddf252ad1be2c89b69c2b068fc378daa952ba7f163c4a11628f55a4df523b3ef60405160405180910390a4612201600083836001612bf0565b5050565b60006067600083815260200190815260200160002060009054906101000a900473ffffffffffffffffffffffffffffffffffffffff169050919050565b60005b81518110156123b45760005b60fc548110156123a05760005b60fb60008381526020019081526020016000206001018054905081101561238c5760fb600083815260200190815260200160002060010181815481106122a7576122a6614333565b5b9060005260206000209060020201600101548484815181106122cc576122cb614333565b5b602002602001015160000151118061233a575060fb6000838152602001908152602001600020600101818154811061230757612306614333565b5b90600052602060002090600202016000015484848151811061232c5761232b614333565b5b602002602001015160200151105b612379576040517f08c379a000000000000000000000000000000000000000000000000000000000815260040161237090614e82565b60405180910390fd5b8080612384906142eb565b91505061225e565b508080612398906142eb565b915050612251565b5080806123ac906142eb565b915050612245565b5050565b600060c960009054906101000a900473ffffffffffffffffffffffffffffffffffffffff1690508160c960006101000a81548173ffffffffffffffffffffffffffffffffffffffff021916908373ffffffffffffffffffffffffffffffffffffffff1602179055508173ffffffffffffffffffffffffffffffffffffffff168173ffffffffffffffffffffffffffffffffffffffff167f8be0079c531659141344cd1fd0a4f28419497f9722a3daafe3b4186f6b6457e060405160405180910390a35050565b6000808273ffffffffffffffffffffffffffffffffffffffff163b119050919050565b600060019054906101000a900460ff166124f0576040517f08c379a00000000000000000000000000000000000000000000000000000000081526004016124e790614f14565b60405180910390fd5b565b600060019054906101000a900460ff16612541576040517f08c379a000000000000000000000000000000000000000000000000000000000815260040161253890614f14565b60405180910390fd5b612549612bf6565b565b600060019054906101000a900460ff1661259a576040517f08c379a000000000000000000000000000000000000000000000000000000000815260040161259190614f14565b60405180910390fd5b6125a48282612c57565b5050565b6000816040516020016125bb9190614f80565b604051602081830303815290604052805190602001209050919050565b6000604182511461261e576040517f08c379a000000000000000000000000000000000000000000000000000000000815260040161261590614ff2565b60405180910390fd5b60008060006020850151915060408501519050606085015160001a92506001868484846040516000815260200160405260405161265e9493929190615030565b6020604051602081039080840390855afa158015612680573d6000803e3d6000fd5b50505060206040510351935050505092915050565b61269e81612cd8565b60006097600083815260200190815260200160002080546126be90613e73565b9050146126e5576097600082815260200190815260200160002060006126e49190613226565b5b50565b8173ffffffffffffffffffffffffffffffffffffffff168373ffffffffffffffffffffffffffffffffffffffff1603612756576040517f08c379a000000000000000000000000000000000000000000000000000000000815260040161274d906150c1565b60405180910390fd5b80606a60008573ffffffffffffffffffffffffffffffffffffffff1673ffffffffffffffffffffffffffffffffffffffff16815260200190815260200160002060008473ffffffffffffffffffffffffffffffffffffffff1673ffffffffffffffffffffffffffffffffffffffff16815260200190815260200160002060006101000a81548160ff0219169083151502179055508173ffffffffffffffffffffffffffffffffffffffff168373ffffffffffffffffffffffffffffffffffffffff167f17307eab39ab6107e8899845ad3d59bd9653f200f220920489ca2b5937696c31836040516128479190613337565b60405180910390a3505050565b61285f848484611cef565b61286b84848484612e26565b6128aa576040517f08c379a00000000000000000000000000000000000000000000000000000000081526004016128a190615153565b60405180910390fd5b50505050565b60008073ffffffffffffffffffffffffffffffffffffffff166128d283612205565b73ffffffffffffffffffffffffffffffffffffffff1614159050919050565b600080600090505b60fc548110156129df5760005b60fb6000838152602001908152602001600020600101805490508110156129cb5760fb6000838152602001908152602001600020600101818154811061294f5761294e614333565b5b90600052602060002090600202016000015484101580156129a9575060fb6000838152602001908152602001600020600101818154811061299357612992614333565b5b9060005260206000209060020201600101548411155b156129b8578192505050612a1b565b80806129c3906142eb565b915050612906565b5080806129d7906142eb565b9150506128f9565b506040517f08c379a0000000000000000000000000000000000000000000000000000000008152600401612a12906151e5565b60405180910390fd5b919050565b606060fd8054612a2f90613e73565b80601f0160208091040260200160405190810160405280929190818152602001828054612a5b90613e73565b8015612aa85780601f10612a7d57610100808354040283529160200191612aa8565b820191906000526020600020905b815481529060010190602001808311612a8b57829003601f168201915b5050505050905090565b606060006001612ac184612fad565b01905060008167ffffffffffffffff811115612ae057612adf613791565b5b6040519080825280601f01601f191660200182016040528015612b125781602001600182028036833780820191505090505b509050600082602001820190505b600115612b75578080600190039150507f3031323334353637383961626364656600000000000000000000000000000000600a86061a8153600a8581612b6957612b68615205565b5b04945060008503612b20575b819350505050919050565b60007f01ffc9a7000000000000000000000000000000000000000000000000000000007bffffffffffffffffffffffffffffffffffffffffffffffffffffffff1916827bffffffffffffffffffffffffffffffffffffffffffffffffffffffff1916149050919050565b50505050565b50505050565b600060019054906101000a900460ff16612c45576040517f08c379a0000000000000000000000000000000000000000000000000000000008152600401612c3c90614f14565b60405180910390fd5b612c55612c50611b99565b6123b8565b565b600060019054906101000a900460ff16612ca6576040517f08c379a0000000000000000000000000000000000000000000000000000000008152600401612c9d90614f14565b60405180910390fd5b8160659080519060200190612cbc929190613186565b508060669080519060200190612cd3929190613186565b505050565b6000612ce382610a72565b9050612cf3816000846001612bea565b612cfc82610a72565b90506069600083815260200190815260200160002060006101000a81549073ffffffffffffffffffffffffffffffffffffffff02191690556001606860008373ffffffffffffffffffffffffffffffffffffffff1673ffffffffffffffffffffffffffffffffffffffff168152602001908152602001600020600082825403925050819055506067600083815260200190815260200160002060006101000a81549073ffffffffffffffffffffffffffffffffffffffff021916905581600073ffffffffffffffffffffffffffffffffffffffff168273ffffffffffffffffffffffffffffffffffffffff167fddf252ad1be2c89b69c2b068fc378daa952ba7f163c4a11628f55a4df523b3ef60405160405180910390a4612e22816000846001612bf0565b5050565b6000612e478473ffffffffffffffffffffffffffffffffffffffff1661247e565b15612fa0578373ffffffffffffffffffffffffffffffffffffffff1663150b7a02612e70611b99565b8786866040518563ffffffff1660e01b8152600401612e929493929190615289565b6020604051808303816000875af1925050508015612ece57506040513d601f19601f82011682018060405250810190612ecb91906152ea565b60015b612f50573d8060008114612efe576040519150601f19603f3d011682016040523d82523d6000602084013e612f03565b606091505b506000815103612f48576040517f08c379a0000000000000000000000000000000000000000000000000000000008152600401612f3f90615153565b60405180910390fd5b805181602001fd5b63150b7a0260e01b7bffffffffffffffffffffffffffffffffffffffffffffffffffffffff1916817bffffffffffffffffffffffffffffffffffffffffffffffffffffffff191614915050612fa5565b600190505b949350505050565b600080600090507a184f03e93ff9f4daa797ed6e38ed64bf6a1f010000000000000000831061300b577a184f03e93ff9f4daa797ed6e38ed64bf6a1f010000000000000000838161300157613000615205565b5b0492506040810190505b6d04ee2d6d415b85acef81000000008310613048576d04ee2d6d415b85acef8100000000838161303e5761303d615205565b5b0492506020810190505b662386f26fc10000831061307757662386f26fc10000838161306d5761306c615205565b5b0492506010810190505b6305f5e10083106130a0576305f5e100838161309657613095615205565b5b0492506008810190505b61271083106130c55761271083816130bb576130ba615205565b5b0492506004810190505b606483106130e857606483816130de576130dd615205565b5b0492506002810190505b600a83106130f7576001810190505b80915050919050565b82805461310c90613e73565b90600052602060002090601f01602090048101928261312e5760008555613175565b82601f1061314757803560ff1916838001178555613175565b82800160010185558215613175579182015b82811115613174578235825591602001919060010190613159565b5b5090506131829190613266565b5090565b82805461319290613e73565b90600052602060002090601f0160209004810192826131b457600085556131fb565b82601f106131cd57805160ff19168380011785556131fb565b828001600101855582156131fb579182015b828111156131fa5782518255916020019190600101906131df565b5b5090506132089190613266565b5090565b604051806040016040528060008152602001600081525090565b50805461323290613e73565b6000825580601f106132445750613263565b601f0160209004906000526020600020908101906132629190613266565b5b50565b5b8082111561327f576000816000905550600101613267565b5090565b6000604051905090565b600080fd5b600080fd5b60007fffffffff0000000000000000000000000000000000000000000000000000000082169050919050565b6132cc81613297565b81146132d757600080fd5b50565b6000813590506132e9816132c3565b92915050565b6000602082840312156133055761330461328d565b5b6000613313848285016132da565b91505092915050565b60008115159050919050565b6133318161331c565b82525050565b600060208201905061334c6000830184613328565b92915050565b6000819050919050565b61336581613352565b811461337057600080fd5b50565b6000813590506133828161335c565b92915050565b60006020828403121561339e5761339d61328d565b5b60006133ac84828501613373565b91505092915050565b600081519050919050565b600082825260208201905092915050565b6000819050602082019050919050565b6133ea81613352565b82525050565b60408201600082015161340660008501826133e1565b50602082015161341960208501826133e1565b50505050565b600061342b83836133f0565b60408301905092915050565b6000602082019050919050565b600061344f826133b5565b61345981856133c0565b9350613464836133d1565b8060005b8381101561349557815161347c888261341f565b975061348783613437565b925050600181019050613468565b5085935050505092915050565b600060208201905081810360008301526134bc8184613444565b905092915050565b600073ffffffffffffffffffffffffffffffffffffffff82169050919050565b60006134ef826134c4565b9050919050565b6134ff816134e4565b811461350a57600080fd5b50565b60008135905061351c816134f6565b92915050565b6000602082840312156135385761353761328d565b5b60006135468482850161350d565b91505092915050565b600081519050919050565b600082825260208201905092915050565b60005b8381101561358957808201518184015260208101905061356e565b83811115613598576000848401525b50505050565b6000601f19601f8301169050919050565b60006135ba8261354f565b6135c4818561355a565b93506135d481856020860161356b565b6135dd8161359e565b840191505092915050565b6000602082019050818103600083015261360281846135af565b905092915050565b613613816134e4565b82525050565b600060208201905061362e600083018461360a565b92915050565b6000806040838503121561364b5761364a61328d565b5b60006136598582860161350d565b925050602061366a85828601613373565b9150509250929050565b60008060006060848603121561368d5761368c61328d565b5b600061369b8682870161350d565b93505060206136ac8682870161350d565b92505060406136bd86828701613373565b9150509250925092565b600080fd5b600080fd5b600080fd5b60008083601f8401126136ec576136eb6136c7565b5b8235905067ffffffffffffffff811115613709576137086136cc565b5b602083019150836001820283011115613725576137246136d1565b5b9250929050565b6000806000604084860312156137455761374461328d565b5b600061375386828701613373565b935050602084013567ffffffffffffffff81111561377457613773613292565b5b613780868287016136d6565b92509250509250925092565b600080fd5b7f4e487b7100000000000000000000000000000000000000000000000000000000600052604160045260246000fd5b6137c98261359e565b810181811067ffffffffffffffff821117156137e8576137e7613791565b5b80604052505050565b60006137fb613283565b905061380782826137c0565b919050565b600067ffffffffffffffff82111561382757613826613791565b5b6138308261359e565b9050602081019050919050565b82818337600083830152505050565b600061385f61385a8461380c565b6137f1565b90508281526020810184848401111561387b5761387a61378c565b5b61388684828561383d565b509392505050565b600082601f8301126138a3576138a26136c7565b5b81356138b384826020860161384c565b91505092915050565b6000602082840312156138d2576138d161328d565b5b600082013567ffffffffffffffff8111156138f0576138ef613292565b5b6138fc8482850161388e565b91505092915050565b60008083601f84011261391b5761391a6136c7565b5b8235905067ffffffffffffffff811115613938576139376136cc565b5b602083019150836040820283011115613954576139536136d1565b5b9250929050565b600080600080604085870312156139755761397461328d565b5b600085013567ffffffffffffffff81111561399357613992613292565b5b61399f878288016136d6565b9450945050602085013567ffffffffffffffff8111156139c2576139c1613292565b5b6139ce87828801613905565b925092505092959194509250565b6139e581613352565b82525050565b6000602082019050613a0060008301846139dc565b92915050565b60008060408385031215613a1d57613a1c61328d565b5b600083013567ffffffffffffffff811115613a3b57613a3a613292565b5b613a478582860161388e565b9250506020613a588582860161350d565b9150509250929050565b600080fd5b600060408284031215613a7d57613a7c613a62565b5b81905092915050565b60008060608385031215613a9d57613a9c61328d565b5b6000613aab85828601613373565b9250506020613abc85828601613a67565b9150509250929050565b60008083601f840112613adc57613adb6136c7565b5b8235905067ffffffffffffffff811115613af957613af86136cc565b5b602083019150836001820283011115613b1557613b146136d1565b5b9250929050565b6000819050919050565b613b2f81613b1c565b8114613b3a57600080fd5b50565b600081359050613b4c81613b26565b92915050565b60008060008060008060a08789031215613b6f57613b6e61328d565b5b600087013567ffffffffffffffff811115613b8d57613b8c613292565b5b613b9989828a01613ac6565b96509650506020613bac89828a01613b3d565b9450506040613bbd89828a01613373565b9350506060613bce89828a01613373565b9250506080613bdf89828a01613373565b9150509295509295509295565b600080600080600060808688031215613c0857613c0761328d565b5b600086013567ffffffffffffffff811115613c2657613c25613292565b5b613c3288828901613ac6565b95509550506020613c4588828901613b3d565b9350506040613c5688828901613373565b9250506060613c6788828901613373565b9150509295509295909350565b613c7d8161331c565b8114613c8857600080fd5b50565b600081359050613c9a81613c74565b92915050565b60008060408385031215613cb757613cb661328d565b5b6000613cc58582860161350d565b9250506020613cd685828601613c8b565b9150509250929050565b600067ffffffffffffffff821115613cfb57613cfa613791565b5b613d048261359e565b9050602081019050919050565b6000613d24613d1f84613ce0565b6137f1565b905082815260208101848484011115613d4057613d3f61378c565b5b613d4b84828561383d565b509392505050565b600082601f830112613d6857613d676136c7565b5b8135613d78848260208601613d11565b91505092915050565b60008060008060808587031215613d9b57613d9a61328d565b5b6000613da98782880161350d565b9450506020613dba8782880161350d565b9350506040613dcb87828801613373565b925050606085013567ffffffffffffffff811115613dec57613deb613292565b5b613df887828801613d53565b91505092959194509250565b60008060408385031215613e1b57613e1a61328d565b5b6000613e298582860161350d565b9250506020613e3a8582860161350d565b9150509250929050565b7f4e487b7100000000000000000000000000000000000000000000000000000000600052602260045260246000fd5b60006002820490506001821680613e8b57607f821691505b602082108103613e9e57613e9d613e44565b5b50919050565b7f4552433732313a20617070726f76616c20746f2063757272656e74206f776e6560008201527f7200000000000000000000000000000000000000000000000000000000000000602082015250565b6000613f0060218361355a565b9150613f0b82613ea4565b604082019050919050565b60006020820190508181036000830152613f2f81613ef3565b9050919050565b7f4552433732313a20617070726f76652063616c6c6572206973206e6f7420746f60008201527f6b656e206f776e6572206f7220617070726f76656420666f7220616c6c000000602082015250565b6000613f92603d8361355a565b9150613f9d82613f36565b604082019050919050565b60006020820190508181036000830152613fc181613f85565b9050919050565b7f4552433732313a2063616c6c6572206973206e6f7420746f6b656e206f776e6560008201527f72206f7220617070726f76656400000000000000000000000000000000000000602082015250565b6000614024602d8361355a565b915061402f82613fc8565b604082019050919050565b6000602082019050818103600083015261405381614017565b9050919050565b7f496e76616c69642063617465676f727920494400000000000000000000000000600082015250565b600061409060138361355a565b915061409b8261405a565b602082019050919050565b600060208201905081810360008301526140bf81614083565b9050919050565b7f4e6577206469726563746f72792063616e6e6f7420626520656d707479000000600082015250565b60006140fc601d8361355a565b9150614107826140c6565b602082019050919050565b6000602082019050818103600083015261412b816140ef565b9050919050565b6000604082019050818103600083015261414c81856135af565b905061415b602083018461360a565b9392505050565b7f4552433732313a20696e76616c696420746f6b656e2049440000000000000000600082015250565b600061419860188361355a565b91506141a382614162565b602082019050919050565b600060208201905081810360008301526141c78161418b565b9050919050565b7f4469726563746f72792063616e6e6f7420626520656d70747900000000000000600082015250565b600061420460198361355a565b915061420f826141ce565b602082019050919050565b60006020820190508181036000830152614233816141f7565b9050919050565b600080fd5b6000604082840312156142555761425461423a565b5b61425f60406137f1565b9050600061426f84828501613373565b600083015250602061428384828501613373565b60208301525092915050565b6000604082840312156142a5576142a461328d565b5b60006142b38482850161423f565b91505092915050565b7f4e487b7100000000000000000000000000000000000000000000000000000000600052601160045260246000fd5b60006142f682613352565b91507fffffffffffffffffffffffffffffffffffffffffffffffffffffffffffffffff8203614328576143276142bc565b5b600182019050919050565b7f4e487b7100000000000000000000000000000000000000000000000000000000600052603260045260246000fd5b6000813561436f8161335c565b80915050919050565b60008160001b9050919050565b60007fffffffffffffffffffffffffffffffffffffffffffffffffffffffffffffffff6143b184614378565b9350801983169250808416831791505092915050565b6000819050919050565b60006143ec6143e76143e284613352565b6143c7565b613352565b9050919050565b6000819050919050565b614406826143d1565b614419614412826143f3565b8354614385565b8255505050565b60008101600083018061443281614362565b905061443e81846143fd565b50505060018101602083018061445381614362565b905061445f81846143fd565b5050505050565b6144708282614420565b5050565b7f4552433732313a2061646472657373207a65726f206973206e6f74206120766160008201527f6c6964206f776e65720000000000000000000000000000000000000000000000602082015250565b60006144d060298361355a565b91506144db82614474565b604082019050919050565b600060208201905081810360008301526144ff816144c3565b9050919050565b7f496e697469616c697a61626c653a20636f6e747261637420697320616c72656160008201527f647920696e697469616c697a6564000000000000000000000000000000000000602082015250565b6000614562602e8361355a565b915061456d82614506565b604082019050919050565b6000602082019050818103600083015261459181614555565b9050919050565b6000819050919050565b600060ff82169050919050565b60006145ca6145c56145c084614598565b6143c7565b6145a2565b9050919050565b6145da816145af565b82525050565b60006020820190506145f560008301846145d1565b92915050565b7f4e6f6e63652068617320616c7265616479206265656e20757365640000000000600082015250565b6000614631601b8361355a565b915061463c826145fb565b602082019050919050565b6000602082019050818103600083015261466081614624565b9050919050565b7f43616c6c6572206d757374206f776e2074686520746f6b656e73000000000000600082015250565b600061469d601a8361355a565b91506146a882614667565b602082019050919050565b600060208201905081810360008301526146cc81614690565b9050919050565b6000819050919050565b6146ee6146e982613b1c565b6146d3565b82525050565b60008160601b9050919050565b600061470c826146f4565b9050919050565b600061471e82614701565b9050919050565b614736614731826134e4565b614713565b82525050565b6000819050919050565b61475761475282613352565b61473c565b82525050565b600061476982886146dd565b6020820191506147798287614725565b6014820191506147898286614746565b6020820191506147998285614746565b6020820191506147a98284614746565b6020820191508190509695505050505050565b7f5369676e617475726520696e76616c6964206f7220756e617574686f72697a6560008201527f6400000000000000000000000000000000000000000000000000000000000000602082015250565b600061481860218361355a565b9150614823826147bc565b604082019050919050565b600060208201905081810360008301526148478161480b565b9050919050565b600061485982613352565b915061486483613352565b9250827fffffffffffffffffffffffffffffffffffffffffffffffffffffffffffffffff03821115614899576148986142bc565b5b828201905092915050565b7f54696d657374616d702068617320657870697265642e00000000000000000000600082015250565b60006148da60168361355a565b91506148e5826148a4565b602082019050919050565b60006020820190508181036000830152614909816148cd565b9050919050565b600061491c82876146dd565b60208201915061492c8286614725565b60148201915061493c8285614746565b60208201915061494c8284614746565b60208201915081905095945050505050565b7f4552433732314d657461646174613a2055524920717565727920666f72206e6f60008201527f6e6578697374656e7420746f6b656e0000000000000000000000000000000000602082015250565b60006149ba602f8361355a565b91506149c58261495e565b604082019050919050565b600060208201905081810360008301526149e9816149ad565b9050919050565b600081905092915050565b6000614a068261354f565b614a1081856149f0565b9350614a2081856020860161356b565b80840191505092915050565b7f2f00000000000000000000000000000000000000000000000000000000000000600082015250565b6000614a626001836149f0565b9150614a6d82614a2c565b600182019050919050565b7f2e6a736f6e000000000000000000000000000000000000000000000000000000600082015250565b6000614aae6005836149f0565b9150614ab982614a78565b600582019050919050565b6000614ad082866149fb565b9150614adb82614a55565b9150614ae782856149fb565b9150614af282614a55565b9150614afe82846149fb565b9150614b0982614aa1565b9150819050949350505050565b7f4f776e61626c653a206e6577206f776e657220697320746865207a65726f206160008201527f6464726573730000000000000000000000000000000000000000000000000000602082015250565b6000614b7260268361355a565b9150614b7d82614b16565b604082019050919050565b60006020820190508181036000830152614ba181614b65565b9050919050565b7f4f776e61626c653a2063616c6c6572206973206e6f7420746865206f776e6572600082015250565b6000614bde60208361355a565b9150614be982614ba8565b602082019050919050565b60006020820190508181036000830152614c0d81614bd1565b9050919050565b7f4552433732313a207472616e736665722066726f6d20696e636f72726563742060008201527f6f776e6572000000000000000000000000000000000000000000000000000000602082015250565b6000614c7060258361355a565b9150614c7b82614c14565b604082019050919050565b60006020820190508181036000830152614c9f81614c63565b9050919050565b7f4552433732313a207472616e7366657220746f20746865207a65726f2061646460008201527f7265737300000000000000000000000000000000000000000000000000000000602082015250565b6000614d0260248361355a565b9150614d0d82614ca6565b604082019050919050565b60006020820190508181036000830152614d3181614cf5565b9050919050565b7f4552433732313a206d696e7420746f20746865207a65726f2061646472657373600082015250565b6000614d6e60208361355a565b9150614d7982614d38565b602082019050919050565b60006020820190508181036000830152614d9d81614d61565b9050919050565b7f4552433732313a20746f6b656e20616c7265616479206d696e74656400000000600082015250565b6000614dda601c8361355a565b9150614de582614da4565b602082019050919050565b60006020820190508181036000830152614e0981614dcd565b9050919050565b7f52616e6765206f7665726c6170732077697468206578697374696e672063617460008201527f65676f7279000000000000000000000000000000000000000000000000000000602082015250565b6000614e6c60258361355a565b9150614e7782614e10565b604082019050919050565b60006020820190508181036000830152614e9b81614e5f565b9050919050565b7f496e697469616c697a61626c653a20636f6e7472616374206973206e6f74206960008201527f6e697469616c697a696e67000000000000000000000000000000000000000000602082015250565b6000614efe602b8361355a565b9150614f0982614ea2565b604082019050919050565b60006020820190508181036000830152614f2d81614ef1565b9050919050565b7f19457468657265756d205369676e6564204d6573736167653a0a333200000000600082015250565b6000614f6a601c836149f0565b9150614f7582614f34565b601c82019050919050565b6000614f8b82614f5d565b9150614f9782846146dd565b60208201915081905092915050565b7f496e76616c6964207369676e6174757265206c656e6774680000000000000000600082015250565b6000614fdc60188361355a565b9150614fe782614fa6565b602082019050919050565b6000602082019050818103600083015261500b81614fcf565b9050919050565b61501b81613b1c565b82525050565b61502a816145a2565b82525050565b60006080820190506150456000830187615012565b6150526020830186615021565b61505f6040830185615012565b61506c6060830184615012565b95945050505050565b7f4552433732313a20617070726f766520746f2063616c6c657200000000000000600082015250565b60006150ab60198361355a565b91506150b682615075565b602082019050919050565b600060208201905081810360008301526150da8161509e565b9050919050565b7f4552433732313a207472616e7366657220746f206e6f6e20455243373231526560008201527f63656976657220696d706c656d656e7465720000000000000000000000000000602082015250565b600061513d60328361355a565b9150615148826150e1565b604082019050919050565b6000602082019050818103600083015261516c81615130565b9050919050565b7f546f6b656e20646f6573206e6f742062656c6f6e6720746f20616e792063617460008201527f65676f7279000000000000000000000000000000000000000000000000000000602082015250565b60006151cf60258361355a565b91506151da82615173565b604082019050919050565b600060208201905081810360008301526151fe816151c2565b9050919050565b7f4e487b7100000000000000000000000000000000000000000000000000000000600052601260045260246000fd5b600081519050919050565b600082825260208201905092915050565b600061525b82615234565b615265818561523f565b935061527581856020860161356b565b61527e8161359e565b840191505092915050565b600060808201905061529e600083018761360a565b6152ab602083018661360a565b6152b860408301856139dc565b81810360608301526152ca8184615250565b905095945050505050565b6000815190506152e4816132c3565b92915050565b600060208284031215615300576152ff61328d565b5b600061530e848285016152d5565b9150509291505056fea2646970667358221220560506dbeb22b6bc923c93f8b0098bf74f040a34da18d96e5f450964792e91e664736f6c634300080d0033",
  "immutableReferences": {},
  "source": "// SPDX-License-Identifier: MIT\r\npragma solidity ^0.8.13;\r\n\r\nimport \"@openzeppelin/contracts-upgradeable/token/ERC721/extensions/ERC721URIStorageUpgradeable.sol\";\r\nimport \"@openzeppelin/contracts-upgradeable/access/OwnableUpgradeable.sol\";\r\nimport \"@openzeppelin/contracts-upgradeable/utils/CountersUpgradeable.sol\";\r\nimport \"@openzeppelin/contracts-upgradeable/utils/cryptography/ECDSAUpgradeable.sol\";\r\nimport \"@openzeppelin/contracts-upgradeable/utils/StringsUpgradeable.sol\";\r\nimport \"@openzeppelin/contracts-upgradeable/proxy/utils/Initializable.sol\";\r\n\r\n\r\ncontract EthStakerERC721Upgradeable is Initializable, ERC721URIStorageUpgradeable, OwnableUpgradeable {\r\n    using CountersUpgradeable for CountersUpgradeable.Counter;\r\n    using ECDSAUpgradeable for bytes32;\r\n    using StringsUpgradeable for uint256;\r\n\r\n    // Events\r\n    event NFTMinted(uint256 indexed tokenId, string tokenURI, address recipient);\r\n    event NFTUpgraded(uint256 indexed burnedTokenId1, uint256 indexed burnedTokenId2, uint256 indexed newTokenId, string newTokenURI);\r\n    event TestEvent(string message);\r\n\r\n    // Structs\r\n    struct TokenRange {\r\n        uint256 start;\r\n        uint256 end;\r\n    }\r\n\r\n    struct Category {\r\n        string directory;\r\n        TokenRange[] ranges;\r\n    }\r\n\r\n    // State variables\r\n    mapping(uint256 => Category) public categories;\r\n    uint256 public categoriesCount;\r\n    string private baseURI;\r\n    address private authSigner;\r\n    mapping(bytes32 => bool) private usedNonces;\r\n    // add a new state variables here\r\n\r\n    // Initializer\r\n    function initialize(string memory _baseURIInit, address _authSigner) public initializer {\r\n        __ERC721URIStorage_init();\r\n        __Ownable_init();\r\n        __ERC721_init(\"Guardians of the Ether\", \"GOTE\");\r\n\r\n        baseURI = _baseURIInit;\r\n        authSigner = _authSigner;\r\n    }\r\n\r\n    // Public and external functions\r\n    function setAuthSigner(address _authSigner) public onlyOwner {\r\n        authSigner = _authSigner;\r\n    }\r\n\r\n    function setBaseURI(string memory baseURI_) external onlyOwner {\r\n        baseURI = baseURI_;\r\n    }\r\n\r\n    function tokenURI(uint256 tokenId) public view override returns (string memory) {\r\n        require(_exists(tokenId), \"ERC721Metadata: URI query for nonexistent token\");\r\n\r\n        uint256 category = getCategoryByTokenId(tokenId);\r\n        string memory categoryDirectory = categories[category].directory;\r\n\r\n        // Concatenate the baseURI, the category directory, tokenId, and \".json\" to form the full URI\r\n        return string(abi.encodePacked(_baseURI(), \"/\", categoryDirectory, \"/\", StringsUpgradeable.toString(tokenId), \".json\"));\r\n    }\r\n\r\n    function test(string memory message) public {\r\n        emit TestEvent(message);\r\n    }\r\n\r\n    function addCategory(string calldata _directory, TokenRange[] calldata _ranges) external onlyOwner {\r\n        require(bytes(_directory).length > 0, \"Directory cannot be empty\");\r\n        validateRanges(_ranges);\r\n        Category storage newCategory = categories[categoriesCount++];//this creates a new Category\r\n        newCategory.directory = _directory;\r\n        for (uint256 i = 0; i < _ranges.length; i++) {\r\n            newCategory.ranges.push(_ranges[i]);\r\n        }\r\n    }\r\n\r\n    function addRangeToCategory(uint256 categoryId, TokenRange calldata newRange) external onlyOwner {\r\n        require(categoryId < categoriesCount, \"Invalid category ID\");\r\n        TokenRange[] memory ranges = new TokenRange[](1);\r\n        ranges[0] = newRange;\r\n        validateRanges(ranges); //check the new range against the existing ranges of the category\r\n        categories[categoryId].ranges.push(newRange);\r\n    }\r\n\r\n    function updateCategoryDirectory(uint256 categoryId, string calldata newDirectory) external onlyOwner {\r\n        require(categoryId < categoriesCount, \"Invalid category ID\");\r\n        require(bytes(newDirectory).length > 0, \"New directory cannot be empty\");\r\n        categories[categoryId].directory = newDirectory;\r\n    }\r\n\r\n    function getCategoryRanges(uint256 categoryId) public view returns (TokenRange[] memory) {\r\n        return categories[categoryId].ranges;\r\n    }\r\n\r\n    function mintTo(address recipient, uint256 tokenId) external onlyOwner {\r\n        _mint(recipient, tokenId);\r\n        emit NFTMinted(tokenId, tokenURI(tokenId), recipient);\r\n    }\r\n\r\n    function mintWithSignature(bytes calldata signature, bytes32 nonce, uint256 tokenId, uint256 timestamp) external {\r\n        require(!usedNonces[nonce], \"Nonce has already been used\");\r\n        require(block.timestamp <= timestamp + 5 minutes, \"Timestamp has expired.\");\r\n        bytes32 message = prefixed(keccak256(abi.encodePacked(nonce, msg.sender, tokenId, timestamp)));\r\n        address signer = recoverSignerFromSignature(message, signature);\r\n        require(signer == authSigner, \"Signature invalid or unauthorized\");\r\n        usedNonces[nonce] = true;\r\n        _mint(msg.sender, tokenId);\r\n        emit NFTMinted(tokenId, tokenURI(tokenId), msg.sender);\r\n    }\r\n\r\n    function upgradeWithSignature(bytes calldata signature, bytes32 nonce, uint256 tokenId1, uint256 tokenId2, uint256 newTokenId) external {\r\n        require(!usedNonces[nonce], \"Nonce has already been used\");\r\n        require(ownerOf(tokenId1) == msg.sender && ownerOf(tokenId2) == msg.sender, \"Caller must own the tokens\");\r\n\r\n        bytes32 message = prefixed(keccak256(abi.encodePacked(nonce, msg.sender, tokenId1, tokenId2, newTokenId)));\r\n        address signer = recoverSignerFromSignature(message, signature);\r\n        require(signer == authSigner, \"Signature invalid or unauthorized\");\r\n        usedNonces[nonce] = true;\r\n\r\n        _burn(tokenId1);\r\n        _burn(tokenId2);\r\n\r\n        _mint(msg.sender, newTokenId);\r\n        emit NFTUpgraded(tokenId1, tokenId2, newTokenId, tokenURI(newTokenId));\r\n    }\r\n\r\n    //Internal and private functions\r\n    function validateRanges(TokenRange[] memory _ranges) internal view {\r\n        for (uint256 i = 0; i < _ranges.length; i++) {\r\n            for (uint256 j = 0; j < categoriesCount; j++) {\r\n                for (uint256 k = 0; k < categories[j].ranges.length; k++) {\r\n                    require(_ranges[i].start > categories[j].ranges[k].end || _ranges[i].end < categories[j].ranges[k].start, \"Range overlaps with existing category\");\r\n                }\r\n            }\r\n        }\r\n    }\r\n\r\n    function _baseURI() internal view override returns (string memory) {\r\n        return baseURI;\r\n    }\r\n\r\n    function getCategoryByTokenId(uint256 tokenId) internal view returns (uint256) {\r\n        for (uint256 i = 0; i < categoriesCount; i++) {\r\n            for (uint256 j = 0; j < categories[i].ranges.length; j++) {\r\n                if (tokenId >= categories[i].ranges[j].start && tokenId <= categories[i].ranges[j].end) {\r\n                    return i;\r\n                }\r\n            }\r\n        }\r\n        revert(\"Token does not belong to any category\");\r\n    }\r\n\r\n    function recoverSignerFromSignature(\r\n        bytes32 message,\r\n        bytes memory sig\r\n    ) internal pure returns (address) {\r\n        require(sig.length == 65, \"Invalid signature length\");\r\n\r\n        uint8 v;\r\n        bytes32 r;\r\n        bytes32 s;\r\n\r\n        assembly {\r\n        // first 32 bytes, after the length prefix\r\n            r := mload(add(sig, 32))\r\n        // second 32 bytes\r\n            s := mload(add(sig, 64))\r\n        // final byte (first byte of the next 32 bytes)\r\n            v := byte(0, mload(add(sig, 96)))\r\n        }\r\n\r\n        return ecrecover(message, v, r, s);\r\n    }\r\n\r\n    function prefixed(bytes32 hash) internal pure returns (bytes32) {\r\n        return keccak256(abi.encodePacked(\"\\x19Ethereum Signed Message:\\n32\", hash));\r\n    }\r\n}\r\n",
  "sourcePath": "C:\\Users\\kyndl\\code\\eth\\eth-staker-nft\\contracts\\EthStakerERC721Upgradable.sol",
  "compiler": {
    "name": "solc",
    "version": "0.8.13+commit.abaa5c0e.Emscripten.clang"
  },
  "schemaVersion": "3.4.16",
  "updatedAt": "2024-04-23T01:11:53.243Z",
  "networkType": "ethereum",
  "devdoc": {
    "kind": "dev",
    "methods": {
      "approve(address,uint256)": {
        "details": "See {IERC721-approve}."
      },
      "balanceOf(address)": {
        "details": "See {IERC721-balanceOf}."
      },
      "getApproved(uint256)": {
        "details": "See {IERC721-getApproved}."
      },
      "isApprovedForAll(address,address)": {
        "details": "See {IERC721-isApprovedForAll}."
      },
      "name()": {
        "details": "See {IERC721Metadata-name}."
      },
      "owner()": {
        "details": "Returns the address of the current owner."
      },
      "ownerOf(uint256)": {
        "details": "See {IERC721-ownerOf}."
      },
      "renounceOwnership()": {
        "details": "Leaves the contract without owner. It will not be possible to call `onlyOwner` functions. Can only be called by the current owner. NOTE: Renouncing ownership will leave the contract without an owner, thereby disabling any functionality that is only available to the owner."
      },
      "safeTransferFrom(address,address,uint256)": {
        "details": "See {IERC721-safeTransferFrom}."
      },
      "safeTransferFrom(address,address,uint256,bytes)": {
        "details": "See {IERC721-safeTransferFrom}."
      },
      "setApprovalForAll(address,bool)": {
        "details": "See {IERC721-setApprovalForAll}."
      },
      "supportsInterface(bytes4)": {
        "details": "See {IERC165-supportsInterface}"
      },
      "symbol()": {
        "details": "See {IERC721Metadata-symbol}."
      },
      "tokenURI(uint256)": {
        "details": "See {IERC721Metadata-tokenURI}."
      },
      "transferFrom(address,address,uint256)": {
        "details": "See {IERC721-transferFrom}."
      },
      "transferOwnership(address)": {
        "details": "Transfers ownership of the contract to a new account (`newOwner`). Can only be called by the current owner."
      }
    },
    "version": 1
  },
  "userdoc": {
    "kind": "user",
    "methods": {},
    "version": 1
  }
}