{"abi":[{"type":"function","name":"addCategory","inputs":[{"name":"_directory","type":"string","internalType":"string"},{"name":"_ranges","type":"tuple[]","internalType":"struct EthStakerERC721Upgradeable.TokenRange[]","components":[{"name":"start","type":"uint256","internalType":"uint256"},{"name":"end","type":"uint256","internalType":"uint256"}]}],"outputs":[],"stateMutability":"nonpayable"},{"type":"function","name":"addRangeToCategory","inputs":[{"name":"categoryId","type":"uint256","internalType":"uint256"},{"name":"newRange","type":"tuple","internalType":"struct EthStakerERC721Upgradeable.TokenRange","components":[{"name":"start","type":"uint256","internalType":"uint256"},{"name":"end","type":"uint256","internalType":"uint256"}]}],"outputs":[],"stateMutability":"nonpayable"},{"type":"function","name":"approve","inputs":[{"name":"to","type":"address","internalType":"address"},{"name":"tokenId","type":"uint256","internalType":"uint256"}],"outputs":[],"stateMutability":"nonpayable"},{"type":"function","name":"balanceOf","inputs":[{"name":"owner","type":"address","internalType":"address"}],"outputs":[{"name":"","type":"uint256","internalType":"uint256"}],"stateMutability":"view"},{"type":"function","name":"categories","inputs":[{"name":"","type":"uint256","internalType":"uint256"}],"outputs":[{"name":"directory","type":"string","internalType":"string"}],"stateMutability":"view"},{"type":"function","name":"categoriesCount","inputs":[],"outputs":[{"name":"","type":"uint256","internalType":"uint256"}],"stateMutability":"view"},{"type":"function","name":"getApproved","inputs":[{"name":"tokenId","type":"uint256","internalType":"uint256"}],"outputs":[{"name":"","type":"address","internalType":"address"}],"stateMutability":"view"},{"type":"function","name":"getCategoryRanges","inputs":[{"name":"categoryId","type":"uint256","internalType":"uint256"}],"outputs":[{"name":"","type":"tuple[]","internalType":"struct EthStakerERC721Upgradeable.TokenRange[]","components":[{"name":"start","type":"uint256","internalType":"uint256"},{"name":"end","type":"uint256","internalType":"uint256"}]}],"stateMutability":"view"},{"type":"function","name":"initialize","inputs":[{"name":"_baseURIInit","type":"string","internalType":"string"},{"name":"_authSigner","type":"address","internalType":"address"}],"outputs":[],"stateMutability":"nonpayable"},{"type":"function","name":"isApprovedForAll","inputs":[{"name":"owner","type":"address","internalType":"address"},{"name":"operator","type":"address","internalType":"address"}],"outputs":[{"name":"","type":"bool","internalType":"bool"}],"stateMutability":"view"},{"type":"function","name":"mintTo","inputs":[{"name":"recipient","type":"address","internalType":"address"},{"name":"tokenId","type":"uint256","internalType":"uint256"}],"outputs":[],"stateMutability":"nonpayable"},{"type":"function","name":"mintWithSignature","inputs":[{"name":"signature","type":"bytes","internalType":"bytes"},{"name":"nonce","type":"bytes32","internalType":"bytes32"},{"name":"tokenId","type":"uint256","internalType":"uint256"},{"name":"timestamp","type":"uint256","internalType":"uint256"}],"outputs":[],"stateMutability":"nonpayable"},{"type":"function","name":"name","inputs":[],"outputs":[{"name":"","type":"string","internalType":"string"}],"stateMutability":"view"},{"type":"function","name":"owner","inputs":[],"outputs":[{"name":"","type":"address","internalType":"address"}],"stateMutability":"view"},{"type":"function","name":"ownerOf","inputs":[{"name":"tokenId","type":"uint256","internalType":"uint256"}],"outputs":[{"name":"","type":"address","internalType":"address"}],"stateMutability":"view"},{"type":"function","name":"renounceOwnership","inputs":[],"outputs":[],"stateMutability":"nonpayable"},{"type":"function","name":"safeTransferFrom","inputs":[{"name":"from","type":"address","internalType":"address"},{"name":"to","type":"address","internalType":"address"},{"name":"tokenId","type":"uint256","internalType":"uint256"}],"outputs":[],"stateMutability":"nonpayable"},{"type":"function","name":"safeTransferFrom","inputs":[{"name":"from","type":"address","internalType":"address"},{"name":"to","type":"address","internalType":"address"},{"name":"tokenId","type":"uint256","internalType":"uint256"},{"name":"data","type":"bytes","internalType":"bytes"}],"outputs":[],"stateMutability":"nonpayable"},{"type":"function","name":"setApprovalForAll","inputs":[{"name":"operator","type":"address","internalType":"address"},{"name":"approved","type":"bool","internalType":"bool"}],"outputs":[],"stateMutability":"nonpayable"},{"type":"function","name":"setAuthSigner","inputs":[{"name":"_authSigner","type":"address","internalType":"address"}],"outputs":[],"stateMutability":"nonpayable"},{"type":"function","name":"setBaseURI","inputs":[{"name":"baseURI_","type":"string","internalType":"string"}],"outputs":[],"stateMutability":"nonpayable"},{"type":"function","name":"supportsInterface","inputs":[{"name":"interfaceId","type":"bytes4","internalType":"bytes4"}],"outputs":[{"name":"","type":"bool","internalType":"bool"}],"stateMutability":"view"},{"type":"function","name":"symbol","inputs":[],"outputs":[{"name":"","type":"string","internalType":"string"}],"stateMutability":"view"},{"type":"function","name":"test","inputs":[{"name":"message","type":"string","internalType":"string"}],"outputs":[],"stateMutability":"nonpayable"},{"type":"function","name":"tokenURI","inputs":[{"name":"tokenId","type":"uint256","internalType":"uint256"}],"outputs":[{"name":"","type":"string","internalType":"string"}],"stateMutability":"view"},{"type":"function","name":"transferFrom","inputs":[{"name":"from","type":"address","internalType":"address"},{"name":"to","type":"address","internalType":"address"},{"name":"tokenId","type":"uint256","internalType":"uint256"}],"outputs":[],"stateMutability":"nonpayable"},{"type":"function","name":"transferOwnership","inputs":[{"name":"newOwner","type":"address","internalType":"address"}],"outputs":[],"stateMutability":"nonpayable"},{"type":"function","name":"updateCategoryDirectory","inputs":[{"name":"categoryId","type":"uint256","internalType":"uint256"},{"name":"newDirectory","type":"string","internalType":"string"}],"outputs":[],"stateMutability":"nonpayable"},{"type":"function","name":"upgradeWithSignature","inputs":[{"name":"signature","type":"bytes","internalType":"bytes"},{"name":"nonce","type":"bytes32","internalType":"bytes32"},{"name":"tokenId1","type":"uint256","internalType":"uint256"},{"name":"tokenId2","type":"uint256","internalType":"uint256"},{"name":"newTokenId","type":"uint256","internalType":"uint256"}],"outputs":[],"stateMutability":"nonpayable"},{"type":"event","name":"Approval","inputs":[{"name":"owner","type":"address","indexed":true,"internalType":"address"},{"name":"approved","type":"address","indexed":true,"internalType":"address"},{"name":"tokenId","type":"uint256","indexed":true,"internalType":"uint256"}],"anonymous":false},{"type":"event","name":"ApprovalForAll","inputs":[{"name":"owner","type":"address","indexed":true,"internalType":"address"},{"name":"operator","type":"address","indexed":true,"internalType":"address"},{"name":"approved","type":"bool","indexed":false,"internalType":"bool"}],"anonymous":false},{"type":"event","name":"BatchMetadataUpdate","inputs":[{"name":"_fromTokenId","type":"uint256","indexed":false,"internalType":"uint256"},{"name":"_toTokenId","type":"uint256","indexed":false,"internalType":"uint256"}],"anonymous":false},{"type":"event","name":"Initialized","inputs":[{"name":"version","type":"uint8","indexed":false,"internalType":"uint8"}],"anonymous":false},{"type":"event","name":"MetadataUpdate","inputs":[{"name":"_tokenId","type":"uint256","indexed":false,"internalType":"uint256"}],"anonymous":false},{"type":"event","name":"NFTMinted","inputs":[{"name":"tokenId","type":"uint256","indexed":true,"internalType":"uint256"},{"name":"tokenURI","type":"string","indexed":false,"internalType":"string"},{"name":"recipient","type":"address","indexed":false,"internalType":"address"}],"anonymous":false},{"type":"event","name":"NFTUpgraded","inputs":[{"name":"burnedTokenId1","type":"uint256","indexed":true,"internalType":"uint256"},{"name":"burnedTokenId2","type":"uint256","indexed":true,"internalType":"uint256"},{"name":"newTokenId","type":"uint256","indexed":true,"internalType":"uint256"},{"name":"newTokenURI","type":"string","indexed":false,"internalType":"string"}],"anonymous":false},{"type":"event","name":"OwnershipTransferred","inputs":[{"name":"previousOwner","type":"address","indexed":true,"internalType":"address"},{"name":"newOwner","type":"address","indexed":true,"internalType":"address"}],"anonymous":false},{"type":"event","name":"TestEvent","inputs":[{"name":"message","type":"string","indexed":false,"internalType":"string"}],"anonymous":false},{"type":"event","name":"Transfer","inputs":[{"name":"from","type":"address","indexed":true,"internalType":"address"},{"name":"to","type":"address","indexed":true,"internalType":"address"},{"name":"tokenId","type":"uint256","indexed":true,"internalType":"uint256"}],"anonymous":false}],"bytecode":{"object":"0x6080604052348015600e575f5ffd5b50614fb98061001c5f395ff3fe608060405234801561000f575f5ffd5b50600436106101cd575f3560e01c8063715018a611610102578063a22cb465116100a0578063c87b56dd1161006f578063c87b56dd146104fb578063e985e9c51461052b578063f2fde38b1461055b578063f9fbd55414610577576101cd565b8063a22cb46514610475578063b7ccc46614610491578063b88d4fde146104af578063c6cdbe5e146104cb576101cd565b80638176a42a116100dc5780638176a42a146104015780638da5cb5b1461041d57806395d89b411461043b5780639d47bc4b14610459576101cd565b8063715018a6146103bf5780637ab4339d146103c95780637c4648b1146103e5576101cd565b80632ed6a39f1161016f57806355f804b31161014957806355f804b3146103275780636352211e146103435780636fb161011461037357806370a082311461038f576101cd565b80632ed6a39f146102d357806342842e0e146102ef578063449a52f81461030b576101cd565b806306fdde03116101ab57806306fdde031461024d578063081812fc1461026b578063095ea7b31461029b57806323b872dd146102b7576101cd565b806301ffc9a7146101d1578063032bcecb146102015780630532bca114610231575b5f5ffd5b6101eb60048036038101906101e69190612e1e565b610593565b6040516101f89190612e63565b60405180910390f35b61021b60048036038101906102169190612eaf565b6105f3565b6040516102289190612fbe565b60405180910390f35b61024b60048036038101906102469190613038565b610676565b005b6102556106c1565b60405161026291906130d3565b60405180910390f35b61028560048036038101906102809190612eaf565b610751565b6040516102929190613102565b60405180910390f35b6102b560048036038101906102b0919061311b565b610793565b005b6102d160048036038101906102cc9190613159565b6108a9565b005b6102ed60048036038101906102e8919061320a565b610909565b005b61030960048036038101906103049190613159565b6109c2565b005b6103256004803603810190610320919061311b565b6109e1565b005b610341600480360381019061033c919061338f565b610a39565b005b61035d60048036038101906103589190612eaf565b610a54565b60405161036a9190613102565b60405180910390f35b61038d6004803603810190610388919061342b565b610ad8565b005b6103a960048036038101906103a49190613038565b610c35565b6040516103b691906134b8565b60405180910390f35b6103c7610ce9565b005b6103e360048036038101906103de91906134d1565b610cfc565b005b6103ff60048036038101906103fa919061354d565b610f04565b005b61041b60048036038101906104169190613613565b61102e565b005b6104256112eb565b6040516104329190613102565b60405180910390f35b610443611313565b60405161045091906130d3565b60405180910390f35b610473600480360381019061046e91906136a9565b6113a3565b005b61048f600480360381019061048a9190613757565b6115e6565b005b6104996115fc565b6040516104a691906134b8565b60405180910390f35b6104c960048036038101906104c49190613833565b611602565b005b6104e560048036038101906104e09190612eaf565b611664565b6040516104f291906130d3565b60405180910390f35b61051560048036038101906105109190612eaf565b611704565b60405161052291906130d3565b60405180910390f35b610545600480360381019061054091906138b3565b611833565b6040516105529190612e63565b60405180910390f35b61057560048036038101906105709190613038565b6118c1565b005b610591600480360381019061058c919061338f565b611943565b005b5f634906490660e01b7bffffffffffffffffffffffffffffffffffffffffffffffffffffffff1916827bffffffffffffffffffffffffffffffffffffffffffffffffffffffff191614806105ec57506105eb8261197d565b5b9050919050565b606060fb5f8381526020019081526020015f20600101805480602002602001604051908101604052809291908181526020015f905b8282101561066b578382905f5260205f2090600202016040518060400160405290815f820154815260200160018201548152505081526020019060010190610628565b505050509050919050565b61067e611a5e565b8060fe5f6101000a81548173ffffffffffffffffffffffffffffffffffffffff021916908373ffffffffffffffffffffffffffffffffffffffff16021790555050565b6060606580546106d09061391e565b80601f01602080910402602001604051908101604052809291908181526020018280546106fc9061391e565b80156107475780601f1061071e57610100808354040283529160200191610747565b820191905f5260205f20905b81548152906001019060200180831161072a57829003601f168201915b5050505050905090565b5f61075b82611adc565b60695f8381526020019081526020015f205f9054906101000a900473ffffffffffffffffffffffffffffffffffffffff169050919050565b5f61079d82610a54565b90508073ffffffffffffffffffffffffffffffffffffffff168373ffffffffffffffffffffffffffffffffffffffff160361080d576040517f08c379a0000000000000000000000000000000000000000000000000000000008152600401610804906139be565b60405180910390fd5b8073ffffffffffffffffffffffffffffffffffffffff1661082c611b27565b73ffffffffffffffffffffffffffffffffffffffff16148061085b575061085a81610855611b27565b611833565b5b61089a576040517f08c379a000000000000000000000000000000000000000000000000000000000815260040161089190613a4c565b60405180910390fd5b6108a48383611b2e565b505050565b6108ba6108b4611b27565b82611be4565b6108f9576040517f08c379a00000000000000000000000000000000000000000000000000000000081526004016108f090613ada565b60405180910390fd5b610904838383611c78565b505050565b610911611a5e565b60fc548310610955576040517f08c379a000000000000000000000000000000000000000000000000000000000815260040161094c90613b42565b60405180910390fd5b5f828290501161099a576040517f08c379a000000000000000000000000000000000000000000000000000000000815260040161099190613baa565b60405180910390fd5b818160fb5f8681526020019081526020015f205f0191826109bc929190613d72565b50505050565b6109dc83838360405180602001604052805f815250611602565b505050565b6109e9611a5e565b6109f38282611cb3565b807f411b345259a1495602cee098e5f501eb3412e0701c10b173ecd8ba7b585974a9610a1e83611704565b84604051610a2d929190613e3f565b60405180910390a25050565b610a41611a5e565b8060fd9081610a509190613e6d565b5050565b5f5f610a5f83611ec6565b90505f73ffffffffffffffffffffffffffffffffffffffff168173ffffffffffffffffffffffffffffffffffffffff1603610acf576040517f08c379a0000000000000000000000000000000000000000000000000000000008152600401610ac690613f86565b60405180910390fd5b80915050919050565b610ae0611a5e565b5f8484905011610b25576040517f08c379a0000000000000000000000000000000000000000000000000000000008152600401610b1c90613fee565b60405180910390fd5b610b838282808060200260200160405190810160405280939291908181526020015f905b82821015610b7957848483905060400201803603810190610b6a919061405d565b81526020019060010190610b49565b5050505050611eff565b5f60fb5f60fc5f815480929190610b99906140b5565b9190505581526020019081526020015f2090508484825f019182610bbe929190613d72565b505f5f90505b83839050811015610c2d5781600101848483818110610be657610be56140fc565b5b905060400201908060018154018082558091505060019003905f5260205f2090600202015f909190919091508181610c1e91906141f1565b50508080600101915050610bc4565b505050505050565b5f5f73ffffffffffffffffffffffffffffffffffffffff168273ffffffffffffffffffffffffffffffffffffffff1603610ca4576040517f08c379a0000000000000000000000000000000000000000000000000000000008152600401610c9b9061426f565b60405180910390fd5b60685f8373ffffffffffffffffffffffffffffffffffffffff1673ffffffffffffffffffffffffffffffffffffffff1681526020019081526020015f20549050919050565b610cf1611a5e565b610cfa5f61205d565b565b5f5f60019054906101000a900460ff16159050808015610d2c575060015f5f9054906101000a900460ff1660ff16105b80610d595750610d3b30612120565b158015610d58575060015f5f9054906101000a900460ff1660ff16145b5b610d98576040517f08c379a0000000000000000000000000000000000000000000000000000000008152600401610d8f906142fd565b60405180910390fd5b60015f5f6101000a81548160ff021916908360ff1602179055508015610dd35760015f60016101000a81548160ff0219169083151502179055505b610ddb612142565b610de3612192565b610e576040518060400160405280601681526020017f477561726469616e73206f6620746865204574686572000000000000000000008152506040518060400160405280600481526020017f474f5445000000000000000000000000000000000000000000000000000000008152506121ea565b8260fd9081610e669190613e6d565b508160fe5f6101000a81548173ffffffffffffffffffffffffffffffffffffffff021916908373ffffffffffffffffffffffffffffffffffffffff1602179055508015610eff575f5f60016101000a81548160ff0219169083151502179055507f7f26b83ff96e1f2b6a682f133852f6798a09c465da95921460cefb38474024986001604051610ef69190614360565b60405180910390a15b505050565b610f0c611a5e565b60fc548210610f50576040517f08c379a0000000000000000000000000000000000000000000000000000000008152600401610f4790613b42565b60405180910390fd5b5f600167ffffffffffffffff811115610f6c57610f6b61326b565b5b604051908082528060200260200182016040528015610fa557816020015b610f92612d48565b815260200190600190039081610f8a5790505b50905081803603810190610fb9919061405d565b815f81518110610fcc57610fcb6140fc565b5b6020026020010181905250610fe081611eff565b60fb5f8481526020019081526020015f2060010182908060018154018082558091505060019003905f5260205f2090600202015f90919091909150818161102791906141f1565b5050505050565b60ff5f8581526020019081526020015f205f9054906101000a900460ff161561108c576040517f08c379a0000000000000000000000000000000000000000000000000000000008152600401611083906143c3565b60405180910390fd5b3373ffffffffffffffffffffffffffffffffffffffff166110ac84610a54565b73ffffffffffffffffffffffffffffffffffffffff1614801561110257503373ffffffffffffffffffffffffffffffffffffffff166110ea83610a54565b73ffffffffffffffffffffffffffffffffffffffff16145b611141576040517f08c379a00000000000000000000000000000000000000000000000000000000081526004016111389061442b565b60405180910390fd5b5f611179853386868660405160200161115e9594939291906144ce565b60405160208183030381529060405280519060200120612246565b90505f6111c98289898080601f0160208091040260200160405190810160405280939291908181526020018383808284375f81840152601f19601f82011690508083019250505050505050612275565b905060fe5f9054906101000a900473ffffffffffffffffffffffffffffffffffffffff1673ffffffffffffffffffffffffffffffffffffffff168173ffffffffffffffffffffffffffffffffffffffff161461125a576040517f08c379a00000000000000000000000000000000000000000000000000000000081526004016112519061459c565b60405180910390fd5b600160ff5f8881526020019081526020015f205f6101000a81548160ff02191690831515021790555061128c8561232b565b6112958461232b565b61129f3384611cb3565b8284867f45b480a4367aed11cdcbf0dce5af32cf5a93bd2153f6226c76122199b24d26c96112cc87611704565b6040516112d991906130d3565b60405180910390a45050505050505050565b5f60c95f9054906101000a900473ffffffffffffffffffffffffffffffffffffffff16905090565b6060606680546113229061391e565b80601f016020809104026020016040519081016040528092919081815260200182805461134e9061391e565b80156113995780601f1061137057610100808354040283529160200191611399565b820191905f5260205f20905b81548152906001019060200180831161137c57829003601f168201915b5050505050905090565b60ff5f8481526020019081526020015f205f9054906101000a900460ff1615611401576040517f08c379a00000000000000000000000000000000000000000000000000000000081526004016113f8906143c3565b60405180910390fd5b61012c8161140f91906145ba565b421115611451576040517f08c379a000000000000000000000000000000000000000000000000000000000815260040161144890614637565b60405180910390fd5b5f6114878433858560405160200161146c9493929190614655565b60405160208183030381529060405280519060200120612246565b90505f6114d78288888080601f0160208091040260200160405190810160405280939291908181526020018383808284375f81840152601f19601f82011690508083019250505050505050612275565b905060fe5f9054906101000a900473ffffffffffffffffffffffffffffffffffffffff1673ffffffffffffffffffffffffffffffffffffffff168173ffffffffffffffffffffffffffffffffffffffff1614611568576040517f08c379a000000000000000000000000000000000000000000000000000000000815260040161155f9061459c565b60405180910390fd5b600160ff5f8781526020019081526020015f205f6101000a81548160ff02191690831515021790555061159b3385611cb3565b837f411b345259a1495602cee098e5f501eb3412e0701c10b173ecd8ba7b585974a96115c686611704565b336040516115d5929190613e3f565b60405180910390a250505050505050565b6115f86115f1611b27565b8383612378565b5050565b60fc5481565b61161361160d611b27565b83611be4565b611652576040517f08c379a000000000000000000000000000000000000000000000000000000000815260040161164990613ada565b60405180910390fd5b61165e848484846124df565b50505050565b60fb602052805f5260405f205f91509050805f0180546116839061391e565b80601f01602080910402602001604051908101604052809291908181526020018280546116af9061391e565b80156116fa5780601f106116d1576101008083540402835291602001916116fa565b820191905f5260205f20905b8154815290600101906020018083116116dd57829003601f168201915b5050505050905081565b606061170f8261253b565b61174e576040517f08c379a000000000000000000000000000000000000000000000000000000000815260040161174590614712565b60405180910390fd5b5f6117588361257b565b90505f60fb5f8381526020019081526020015f205f0180546117799061391e565b80601f01602080910402602001604051908101604052809291908181526020018280546117a59061391e565b80156117f05780601f106117c7576101008083540402835291602001916117f0565b820191905f5260205f20905b8154815290600101906020018083116117d357829003601f168201915b505050505090506117ff612693565b8161180986612723565b60405160200161181b939291906147fe565b60405160208183030381529060405292505050919050565b5f606a5f8473ffffffffffffffffffffffffffffffffffffffff1673ffffffffffffffffffffffffffffffffffffffff1681526020019081526020015f205f8373ffffffffffffffffffffffffffffffffffffffff1673ffffffffffffffffffffffffffffffffffffffff1681526020019081526020015f205f9054906101000a900460ff16905092915050565b6118c9611a5e565b5f73ffffffffffffffffffffffffffffffffffffffff168173ffffffffffffffffffffffffffffffffffffffff1603611937576040517f08c379a000000000000000000000000000000000000000000000000000000000815260040161192e906148bf565b60405180910390fd5b6119408161205d565b50565b7fe75028ff36bb6473da3731a30e1aeeae9988e2415dba2c4e91e0357955065fba8160405161197291906130d3565b60405180910390a150565b5f7f80ac58cd000000000000000000000000000000000000000000000000000000007bffffffffffffffffffffffffffffffffffffffffffffffffffffffff1916827bffffffffffffffffffffffffffffffffffffffffffffffffffffffff19161480611a4757507f5b5e139f000000000000000000000000000000000000000000000000000000007bffffffffffffffffffffffffffffffffffffffffffffffffffffffff1916827bffffffffffffffffffffffffffffffffffffffffffffffffffffffff1916145b80611a575750611a56826127ed565b5b9050919050565b611a66611b27565b73ffffffffffffffffffffffffffffffffffffffff16611a846112eb565b73ffffffffffffffffffffffffffffffffffffffff1614611ada576040517f08c379a0000000000000000000000000000000000000000000000000000000008152600401611ad190614927565b60405180910390fd5b565b611ae58161253b565b611b24576040517f08c379a0000000000000000000000000000000000000000000000000000000008152600401611b1b90613f86565b60405180910390fd5b50565b5f33905090565b8160695f8381526020019081526020015f205f6101000a81548173ffffffffffffffffffffffffffffffffffffffff021916908373ffffffffffffffffffffffffffffffffffffffff160217905550808273ffffffffffffffffffffffffffffffffffffffff16611b9e83610a54565b73ffffffffffffffffffffffffffffffffffffffff167f8c5be1e5ebec7d5bd14f71427d1e84f3dd0314c0f7b2291e5b200ac8c7c3b92560405160405180910390a45050565b5f5f611bef83610a54565b90508073ffffffffffffffffffffffffffffffffffffffff168473ffffffffffffffffffffffffffffffffffffffff161480611c315750611c308185611833565b5b80611c6f57508373ffffffffffffffffffffffffffffffffffffffff16611c5784610751565b73ffffffffffffffffffffffffffffffffffffffff16145b91505092915050565b6040517f08c379a0000000000000000000000000000000000000000000000000000000008152600401611caa906149b5565b60405180910390fd5b5f73ffffffffffffffffffffffffffffffffffffffff168273ffffffffffffffffffffffffffffffffffffffff1603611d21576040517f08c379a0000000000000000000000000000000000000000000000000000000008152600401611d1890614a1d565b60405180910390fd5b611d2a8161253b565b15611d6a576040517f08c379a0000000000000000000000000000000000000000000000000000000008152600401611d6190614a85565b60405180910390fd5b611d775f83836001612856565b611d808161253b565b15611dc0576040517f08c379a0000000000000000000000000000000000000000000000000000000008152600401611db790614a85565b60405180910390fd5b600160685f8473ffffffffffffffffffffffffffffffffffffffff1673ffffffffffffffffffffffffffffffffffffffff1681526020019081526020015f205f82825401925050819055508160675f8381526020019081526020015f205f6101000a81548173ffffffffffffffffffffffffffffffffffffffff021916908373ffffffffffffffffffffffffffffffffffffffff160217905550808273ffffffffffffffffffffffffffffffffffffffff165f73ffffffffffffffffffffffffffffffffffffffff167fddf252ad1be2c89b69c2b068fc378daa952ba7f163c4a11628f55a4df523b3ef60405160405180910390a4611ec25f8383600161285c565b5050565b5f60675f8381526020019081526020015f205f9054906101000a900473ffffffffffffffffffffffffffffffffffffffff169050919050565b5f5f90505b8151811015612059575f5f90505b60fc5481101561204b575f5f90505b60fb5f8381526020019081526020015f206001018054905081101561203d5760fb5f8381526020019081526020015f206001018181548110611f6657611f656140fc565b5b905f5260205f20906002020160010154848481518110611f8957611f886140fc565b5b60200260200101515f01511180611ff1575060fb5f8381526020019081526020015f206001018181548110611fc157611fc06140fc565b5b905f5260205f2090600202015f0154848481518110611fe357611fe26140fc565b5b602002602001015160200151105b612030576040517f08c379a000000000000000000000000000000000000000000000000000000000815260040161202790614b13565b60405180910390fd5b8080600101915050611f21565b508080600101915050611f12565b508080600101915050611f04565b5050565b5f60c95f9054906101000a900473ffffffffffffffffffffffffffffffffffffffff1690508160c95f6101000a81548173ffffffffffffffffffffffffffffffffffffffff021916908373ffffffffffffffffffffffffffffffffffffffff1602179055508173ffffffffffffffffffffffffffffffffffffffff168173ffffffffffffffffffffffffffffffffffffffff167f8be0079c531659141344cd1fd0a4f28419497f9722a3daafe3b4186f6b6457e060405160405180910390a35050565b5f5f8273ffffffffffffffffffffffffffffffffffffffff163b119050919050565b5f60019054906101000a900460ff16612190576040517f08c379a000000000000000000000000000000000000000000000000000000000815260040161218790614ba1565b60405180910390fd5b565b5f60019054906101000a900460ff166121e0576040517f08c379a00000000000000000000000000000000000000000000000000000000081526004016121d790614ba1565b60405180910390fd5b6121e8612862565b565b5f60019054906101000a900460ff16612238576040517f08c379a000000000000000000000000000000000000000000000000000000000815260040161222f90614ba1565b60405180910390fd5b61224282826128c2565b5050565b5f816040516020016122589190614c09565b604051602081830303815290604052805190602001209050919050565b5f60418251146122ba576040517f08c379a00000000000000000000000000000000000000000000000000000000081526004016122b190614c78565b60405180910390fd5b5f5f5f602085015191506040850151905060608501515f1a92506001868484846040515f81526020016040526040516122f69493929190614cb4565b6020604051602081039080840390855afa158015612316573d5f5f3e3d5ffd5b50505060206040510351935050505092915050565b61233481612934565b5f60975f8381526020019081526020015f2080546123519061391e565b9050146123755760975f8281526020019081526020015f205f6123749190612d60565b5b50565b8173ffffffffffffffffffffffffffffffffffffffff168373ffffffffffffffffffffffffffffffffffffffff16036123e6576040517f08c379a00000000000000000000000000000000000000000000000000000000081526004016123dd90614d41565b60405180910390fd5b80606a5f8573ffffffffffffffffffffffffffffffffffffffff1673ffffffffffffffffffffffffffffffffffffffff1681526020019081526020015f205f8473ffffffffffffffffffffffffffffffffffffffff1673ffffffffffffffffffffffffffffffffffffffff1681526020019081526020015f205f6101000a81548160ff0219169083151502179055508173ffffffffffffffffffffffffffffffffffffffff168373ffffffffffffffffffffffffffffffffffffffff167f17307eab39ab6107e8899845ad3d59bd9653f200f220920489ca2b5937696c31836040516124d29190612e63565b60405180910390a3505050565b6124ea848484611c78565b6124f684848484612a75565b612535576040517f08c379a000000000000000000000000000000000000000000000000000000000815260040161252c90614dcf565b60405180910390fd5b50505050565b5f5f73ffffffffffffffffffffffffffffffffffffffff1661255c83611ec6565b73ffffffffffffffffffffffffffffffffffffffff1614159050919050565b5f5f5f90505b60fc54811015612652575f5f90505b60fb5f8381526020019081526020015f20600101805490508110156126445760fb5f8381526020019081526020015f2060010181815481106125d5576125d46140fc565b5b905f5260205f2090600202015f01548410158015612628575060fb5f8381526020019081526020015f206001018181548110612614576126136140fc565b5b905f5260205f209060020201600101548411155b1561263757819250505061268e565b8080600101915050612590565b508080600101915050612581565b506040517f08c379a000000000000000000000000000000000000000000000000000000000815260040161268590614e5d565b60405180910390fd5b919050565b606060fd80546126a29061391e565b80601f01602080910402602001604051908101604052809291908181526020018280546126ce9061391e565b80156127195780601f106126f057610100808354040283529160200191612719565b820191905f5260205f20905b8154815290600101906020018083116126fc57829003601f168201915b5050505050905090565b60605f600161273184612bf7565b0190505f8167ffffffffffffffff81111561274f5761274e61326b565b5b6040519080825280601f01601f1916602001820160405280156127815781602001600182028036833780820191505090505b5090505f82602001820190505b6001156127e2578080600190039150507f3031323334353637383961626364656600000000000000000000000000000000600a86061a8153600a85816127d7576127d6614e7b565b5b0494505f850361278e575b819350505050919050565b5f7f01ffc9a7000000000000000000000000000000000000000000000000000000007bffffffffffffffffffffffffffffffffffffffffffffffffffffffff1916827bffffffffffffffffffffffffffffffffffffffffffffffffffffffff1916149050919050565b50505050565b50505050565b5f60019054906101000a900460ff166128b0576040517f08c379a00000000000000000000000000000000000000000000000000000000081526004016128a790614ba1565b60405180910390fd5b6128c06128bb611b27565b61205d565b565b5f60019054906101000a900460ff16612910576040517f08c379a000000000000000000000000000000000000000000000000000000000815260040161290790614ba1565b60405180910390fd5b816065908161291f9190613e6d565b50806066908161292f9190613e6d565b505050565b5f61293e82610a54565b905061294d815f846001612856565b61295682610a54565b905060695f8381526020019081526020015f205f6101000a81549073ffffffffffffffffffffffffffffffffffffffff0219169055600160685f8373ffffffffffffffffffffffffffffffffffffffff1673ffffffffffffffffffffffffffffffffffffffff1681526020019081526020015f205f828254039250508190555060675f8381526020019081526020015f205f6101000a81549073ffffffffffffffffffffffffffffffffffffffff0219169055815f73ffffffffffffffffffffffffffffffffffffffff168273ffffffffffffffffffffffffffffffffffffffff167fddf252ad1be2c89b69c2b068fc378daa952ba7f163c4a11628f55a4df523b3ef60405160405180910390a4612a71815f84600161285c565b5050565b5f612a958473ffffffffffffffffffffffffffffffffffffffff16612120565b15612bea578373ffffffffffffffffffffffffffffffffffffffff1663150b7a02612abe611b27565b8786866040518563ffffffff1660e01b8152600401612ae09493929190614efa565b6020604051808303815f875af1925050508015612b1b57506040513d601f19601f82011682018060405250810190612b189190614f58565b60015b612b9a573d805f8114612b49576040519150601f19603f3d011682016040523d82523d5f602084013e612b4e565b606091505b505f815103612b92576040517f08c379a0000000000000000000000000000000000000000000000000000000008152600401612b8990614dcf565b60405180910390fd5b805181602001fd5b63150b7a0260e01b7bffffffffffffffffffffffffffffffffffffffffffffffffffffffff1916817bffffffffffffffffffffffffffffffffffffffffffffffffffffffff191614915050612bef565b600190505b949350505050565b5f5f5f90507a184f03e93ff9f4daa797ed6e38ed64bf6a1f0100000000000000008310612c53577a184f03e93ff9f4daa797ed6e38ed64bf6a1f0100000000000000008381612c4957612c48614e7b565b5b0492506040810190505b6d04ee2d6d415b85acef81000000008310612c90576d04ee2d6d415b85acef81000000008381612c8657612c85614e7b565b5b0492506020810190505b662386f26fc100008310612cbf57662386f26fc100008381612cb557612cb4614e7b565b5b0492506010810190505b6305f5e1008310612ce8576305f5e1008381612cde57612cdd614e7b565b5b0492506008810190505b6127108310612d0d576127108381612d0357612d02614e7b565b5b0492506004810190505b60648310612d305760648381612d2657612d25614e7b565b5b0492506002810190505b600a8310612d3f576001810190505b80915050919050565b60405180604001604052805f81526020015f81525090565b508054612d6c9061391e565b5f825580601f10612d7d5750612d9a565b601f0160209004905f5260205f2090810190612d999190612d9d565b5b50565b5b80821115612db4575f815f905550600101612d9e565b5090565b5f604051905090565b5f5ffd5b5f5ffd5b5f7fffffffff0000000000000000000000000000000000000000000000000000000082169050919050565b612dfd81612dc9565b8114612e07575f5ffd5b50565b5f81359050612e1881612df4565b92915050565b5f60208284031215612e3357612e32612dc1565b5b5f612e4084828501612e0a565b91505092915050565b5f8115159050919050565b612e5d81612e49565b82525050565b5f602082019050612e765f830184612e54565b92915050565b5f819050919050565b612e8e81612e7c565b8114612e98575f5ffd5b50565b5f81359050612ea981612e85565b92915050565b5f60208284031215612ec457612ec3612dc1565b5b5f612ed184828501612e9b565b91505092915050565b5f81519050919050565b5f82825260208201905092915050565b5f819050602082019050919050565b612f0c81612e7c565b82525050565b604082015f820151612f265f850182612f03565b506020820151612f396020850182612f03565b50505050565b5f612f4a8383612f12565b60408301905092915050565b5f602082019050919050565b5f612f6c82612eda565b612f768185612ee4565b9350612f8183612ef4565b805f5b83811015612fb1578151612f988882612f3f565b9750612fa383612f56565b925050600181019050612f84565b5085935050505092915050565b5f6020820190508181035f830152612fd68184612f62565b905092915050565b5f73ffffffffffffffffffffffffffffffffffffffff82169050919050565b5f61300782612fde565b9050919050565b61301781612ffd565b8114613021575f5ffd5b50565b5f813590506130328161300e565b92915050565b5f6020828403121561304d5761304c612dc1565b5b5f61305a84828501613024565b91505092915050565b5f81519050919050565b5f82825260208201905092915050565b8281835e5f83830152505050565b5f601f19601f8301169050919050565b5f6130a582613063565b6130af818561306d565b93506130bf81856020860161307d565b6130c88161308b565b840191505092915050565b5f6020820190508181035f8301526130eb818461309b565b905092915050565b6130fc81612ffd565b82525050565b5f6020820190506131155f8301846130f3565b92915050565b5f5f6040838503121561313157613130612dc1565b5b5f61313e85828601613024565b925050602061314f85828601612e9b565b9150509250929050565b5f5f5f606084860312156131705761316f612dc1565b5b5f61317d86828701613024565b935050602061318e86828701613024565b925050604061319f86828701612e9b565b9150509250925092565b5f5ffd5b5f5ffd5b5f5ffd5b5f5f83601f8401126131ca576131c96131a9565b5b8235905067ffffffffffffffff8111156131e7576131e66131ad565b5b602083019150836001820283011115613203576132026131b1565b5b9250929050565b5f5f5f6040848603121561322157613220612dc1565b5b5f61322e86828701612e9b565b935050602084013567ffffffffffffffff81111561324f5761324e612dc5565b5b61325b868287016131b5565b92509250509250925092565b5f5ffd5b7f4e487b71000000000000000000000000000000000000000000000000000000005f52604160045260245ffd5b6132a18261308b565b810181811067ffffffffffffffff821117156132c0576132bf61326b565b5b80604052505050565b5f6132d2612db8565b90506132de8282613298565b919050565b5f67ffffffffffffffff8211156132fd576132fc61326b565b5b6133068261308b565b9050602081019050919050565b828183375f83830152505050565b5f61333361332e846132e3565b6132c9565b90508281526020810184848401111561334f5761334e613267565b5b61335a848285613313565b509392505050565b5f82601f830112613376576133756131a9565b5b8135613386848260208601613321565b91505092915050565b5f602082840312156133a4576133a3612dc1565b5b5f82013567ffffffffffffffff8111156133c1576133c0612dc5565b5b6133cd84828501613362565b91505092915050565b5f5f83601f8401126133eb576133ea6131a9565b5b8235905067ffffffffffffffff811115613408576134076131ad565b5b602083019150836040820283011115613424576134236131b1565b5b9250929050565b5f5f5f5f6040858703121561344357613442612dc1565b5b5f85013567ffffffffffffffff8111156134605761345f612dc5565b5b61346c878288016131b5565b9450945050602085013567ffffffffffffffff81111561348f5761348e612dc5565b5b61349b878288016133d6565b925092505092959194509250565b6134b281612e7c565b82525050565b5f6020820190506134cb5f8301846134a9565b92915050565b5f5f604083850312156134e7576134e6612dc1565b5b5f83013567ffffffffffffffff81111561350457613503612dc5565b5b61351085828601613362565b925050602061352185828601613024565b9150509250929050565b5f5ffd5b5f604082840312156135445761354361352b565b5b81905092915050565b5f5f6060838503121561356357613562612dc1565b5b5f61357085828601612e9b565b92505060206135818582860161352f565b9150509250929050565b5f5f83601f8401126135a05761359f6131a9565b5b8235905067ffffffffffffffff8111156135bd576135bc6131ad565b5b6020830191508360018202830111156135d9576135d86131b1565b5b9250929050565b5f819050919050565b6135f2816135e0565b81146135fc575f5ffd5b50565b5f8135905061360d816135e9565b92915050565b5f5f5f5f5f5f60a0878903121561362d5761362c612dc1565b5b5f87013567ffffffffffffffff81111561364a57613649612dc5565b5b61365689828a0161358b565b9650965050602061366989828a016135ff565b945050604061367a89828a01612e9b565b935050606061368b89828a01612e9b565b925050608061369c89828a01612e9b565b9150509295509295509295565b5f5f5f5f5f608086880312156136c2576136c1612dc1565b5b5f86013567ffffffffffffffff8111156136df576136de612dc5565b5b6136eb8882890161358b565b955095505060206136fe888289016135ff565b935050604061370f88828901612e9b565b925050606061372088828901612e9b565b9150509295509295909350565b61373681612e49565b8114613740575f5ffd5b50565b5f813590506137518161372d565b92915050565b5f5f6040838503121561376d5761376c612dc1565b5b5f61377a85828601613024565b925050602061378b85828601613743565b9150509250929050565b5f67ffffffffffffffff8211156137af576137ae61326b565b5b6137b88261308b565b9050602081019050919050565b5f6137d76137d284613795565b6132c9565b9050828152602081018484840111156137f3576137f2613267565b5b6137fe848285613313565b509392505050565b5f82601f83011261381a576138196131a9565b5b813561382a8482602086016137c5565b91505092915050565b5f5f5f5f6080858703121561384b5761384a612dc1565b5b5f61385887828801613024565b945050602061386987828801613024565b935050604061387a87828801612e9b565b925050606085013567ffffffffffffffff81111561389b5761389a612dc5565b5b6138a787828801613806565b91505092959194509250565b5f5f604083850312156138c9576138c8612dc1565b5b5f6138d685828601613024565b92505060206138e785828601613024565b9150509250929050565b7f4e487b71000000000000000000000000000000000000000000000000000000005f52602260045260245ffd5b5f600282049050600182168061393557607f821691505b602082108103613948576139476138f1565b5b50919050565b7f4552433732313a20617070726f76616c20746f2063757272656e74206f776e655f8201527f7200000000000000000000000000000000000000000000000000000000000000602082015250565b5f6139a860218361306d565b91506139b38261394e565b604082019050919050565b5f6020820190508181035f8301526139d58161399c565b9050919050565b7f4552433732313a20617070726f76652063616c6c6572206973206e6f7420746f5f8201527f6b656e206f776e6572206f7220617070726f76656420666f7220616c6c000000602082015250565b5f613a36603d8361306d565b9150613a41826139dc565b604082019050919050565b5f6020820190508181035f830152613a6381613a2a565b9050919050565b7f4552433732313a2063616c6c6572206973206e6f7420746f6b656e206f776e655f8201527f72206f7220617070726f76656400000000000000000000000000000000000000602082015250565b5f613ac4602d8361306d565b9150613acf82613a6a565b604082019050919050565b5f6020820190508181035f830152613af181613ab8565b9050919050565b7f496e76616c69642063617465676f7279204944000000000000000000000000005f82015250565b5f613b2c60138361306d565b9150613b3782613af8565b602082019050919050565b5f6020820190508181035f830152613b5981613b20565b9050919050565b7f4e6577206469726563746f72792063616e6e6f7420626520656d7074790000005f82015250565b5f613b94601d8361306d565b9150613b9f82613b60565b602082019050919050565b5f6020820190508181035f830152613bc181613b88565b9050919050565b5f82905092915050565b5f819050815f5260205f209050919050565b5f6020601f8301049050919050565b5f82821b905092915050565b5f60088302613c2e7fffffffffffffffffffffffffffffffffffffffffffffffffffffffffffffffff82613bf3565b613c388683613bf3565b95508019841693508086168417925050509392505050565b5f819050919050565b5f613c73613c6e613c6984612e7c565b613c50565b612e7c565b9050919050565b5f819050919050565b613c8c83613c59565b613ca0613c9882613c7a565b848454613bff565b825550505050565b5f5f905090565b613cb7613ca8565b613cc2818484613c83565b505050565b5b81811015613ce557613cda5f82613caf565b600181019050613cc8565b5050565b601f821115613d2a57613cfb81613bd2565b613d0484613be4565b81016020851015613d13578190505b613d27613d1f85613be4565b830182613cc7565b50505b505050565b5f82821c905092915050565b5f613d4a5f1984600802613d2f565b1980831691505092915050565b5f613d628383613d3b565b9150826002028217905092915050565b613d7c8383613bc8565b67ffffffffffffffff811115613d9557613d9461326b565b5b613d9f825461391e565b613daa828285613ce9565b5f601f831160018114613dd7575f8415613dc5578287013590505b613dcf8582613d57565b865550613e36565b601f198416613de586613bd2565b5f5b82811015613e0c57848901358255600182019150602085019450602081019050613de7565b86831015613e295784890135613e25601f891682613d3b565b8355505b6001600288020188555050505b50505050505050565b5f6040820190508181035f830152613e57818561309b565b9050613e6660208301846130f3565b9392505050565b613e7682613063565b67ffffffffffffffff811115613e8f57613e8e61326b565b5b613e99825461391e565b613ea4828285613ce9565b5f60209050601f831160018114613ed5575f8415613ec3578287015190505b613ecd8582613d57565b865550613f34565b601f198416613ee386613bd2565b5f5b82811015613f0a57848901518255600182019150602085019450602081019050613ee5565b86831015613f275784890151613f23601f891682613d3b565b8355505b6001600288020188555050505b505050505050565b7f4552433732313a20696e76616c696420746f6b656e20494400000000000000005f82015250565b5f613f7060188361306d565b9150613f7b82613f3c565b602082019050919050565b5f6020820190508181035f830152613f9d81613f64565b9050919050565b7f4469726563746f72792063616e6e6f7420626520656d707479000000000000005f82015250565b5f613fd860198361306d565b9150613fe382613fa4565b602082019050919050565b5f6020820190508181035f83015261400581613fcc565b9050919050565b5f5ffd5b5f604082840312156140255761402461400c565b5b61402f60406132c9565b90505f61403e84828501612e9b565b5f83015250602061405184828501612e9b565b60208301525092915050565b5f6040828403121561407257614071612dc1565b5b5f61407f84828501614010565b91505092915050565b7f4e487b71000000000000000000000000000000000000000000000000000000005f52601160045260245ffd5b5f6140bf82612e7c565b91507fffffffffffffffffffffffffffffffffffffffffffffffffffffffffffffffff82036140f1576140f0614088565b5b600182019050919050565b7f4e487b71000000000000000000000000000000000000000000000000000000005f52603260045260245ffd5b5f813561413581612e85565b80915050919050565b5f815f1b9050919050565b5f7fffffffffffffffffffffffffffffffffffffffffffffffffffffffffffffffff6141748461413e565b9350801983169250808416831791505092915050565b61419382613c59565b6141a661419f82613c7a565b8354614149565b8255505050565b5f81015f8301806141bd81614129565b90506141c9818461418a565b5050506001810160208301806141de81614129565b90506141ea818461418a565b5050505050565b6141fb82826141ad565b5050565b7f4552433732313a2061646472657373207a65726f206973206e6f7420612076615f8201527f6c6964206f776e65720000000000000000000000000000000000000000000000602082015250565b5f61425960298361306d565b9150614264826141ff565b604082019050919050565b5f6020820190508181035f8301526142868161424d565b9050919050565b7f496e697469616c697a61626c653a20636f6e747261637420697320616c7265615f8201527f647920696e697469616c697a6564000000000000000000000000000000000000602082015250565b5f6142e7602e8361306d565b91506142f28261428d565b604082019050919050565b5f6020820190508181035f830152614314816142db565b9050919050565b5f819050919050565b5f60ff82169050919050565b5f61434a6143456143408461431b565b613c50565b614324565b9050919050565b61435a81614330565b82525050565b5f6020820190506143735f830184614351565b92915050565b7f4e6f6e63652068617320616c7265616479206265656e207573656400000000005f82015250565b5f6143ad601b8361306d565b91506143b882614379565b602082019050919050565b5f6020820190508181035f8301526143da816143a1565b9050919050565b7f43616c6c6572206d757374206f776e2074686520746f6b656e730000000000005f82015250565b5f614415601a8361306d565b9150614420826143e1565b602082019050919050565b5f6020820190508181035f83015261444281614409565b9050919050565b5f819050919050565b61446361445e826135e0565b614449565b82525050565b5f8160601b9050919050565b5f61447f82614469565b9050919050565b5f61449082614475565b9050919050565b6144a86144a382612ffd565b614486565b82525050565b5f819050919050565b6144c86144c382612e7c565b6144ae565b82525050565b5f6144d98288614452565b6020820191506144e98287614497565b6014820191506144f982866144b7565b60208201915061450982856144b7565b60208201915061451982846144b7565b6020820191508190509695505050505050565b7f5369676e617475726520696e76616c6964206f7220756e617574686f72697a655f8201527f6400000000000000000000000000000000000000000000000000000000000000602082015250565b5f61458660218361306d565b91506145918261452c565b604082019050919050565b5f6020820190508181035f8301526145b38161457a565b9050919050565b5f6145c482612e7c565b91506145cf83612e7c565b92508282019050808211156145e7576145e6614088565b5b92915050565b7f54696d657374616d702068617320657870697265642e000000000000000000005f82015250565b5f61462160168361306d565b915061462c826145ed565b602082019050919050565b5f6020820190508181035f83015261464e81614615565b9050919050565b5f6146608287614452565b6020820191506146708286614497565b60148201915061468082856144b7565b60208201915061469082846144b7565b60208201915081905095945050505050565b7f4552433732314d657461646174613a2055524920717565727920666f72206e6f5f8201527f6e6578697374656e7420746f6b656e0000000000000000000000000000000000602082015250565b5f6146fc602f8361306d565b9150614707826146a2565b604082019050919050565b5f6020820190508181035f830152614729816146f0565b9050919050565b5f81905092915050565b5f61474482613063565b61474e8185614730565b935061475e81856020860161307d565b80840191505092915050565b7f2f000000000000000000000000000000000000000000000000000000000000005f82015250565b5f61479e600183614730565b91506147a98261476a565b600182019050919050565b7f2e6a736f6e0000000000000000000000000000000000000000000000000000005f82015250565b5f6147e8600583614730565b91506147f3826147b4565b600582019050919050565b5f614809828661473a565b915061481482614792565b9150614820828561473a565b915061482b82614792565b9150614837828461473a565b9150614842826147dc565b9150819050949350505050565b7f4f776e61626c653a206e6577206f776e657220697320746865207a65726f20615f8201527f6464726573730000000000000000000000000000000000000000000000000000602082015250565b5f6148a960268361306d565b91506148b48261484f565b604082019050919050565b5f6020820190508181035f8301526148d68161489d565b9050919050565b7f4f776e61626c653a2063616c6c6572206973206e6f7420746865206f776e65725f82015250565b5f61491160208361306d565b915061491c826148dd565b602082019050919050565b5f6020820190508181035f83015261493e81614905565b9050919050565b7f5472616e7366657273206172652064697361626c656420666f722074686973205f8201527f4e46540000000000000000000000000000000000000000000000000000000000602082015250565b5f61499f60238361306d565b91506149aa82614945565b604082019050919050565b5f6020820190508181035f8301526149cc81614993565b9050919050565b7f4552433732313a206d696e7420746f20746865207a65726f20616464726573735f82015250565b5f614a0760208361306d565b9150614a12826149d3565b602082019050919050565b5f6020820190508181035f830152614a34816149fb565b9050919050565b7f4552433732313a20746f6b656e20616c7265616479206d696e746564000000005f82015250565b5f614a6f601c8361306d565b9150614a7a82614a3b565b602082019050919050565b5f6020820190508181035f830152614a9c81614a63565b9050919050565b7f52616e6765206f7665726c6170732077697468206578697374696e67206361745f8201527f65676f7279000000000000000000000000000000000000000000000000000000602082015250565b5f614afd60258361306d565b9150614b0882614aa3565b604082019050919050565b5f6020820190508181035f830152614b2a81614af1565b9050919050565b7f496e697469616c697a61626c653a20636f6e7472616374206973206e6f7420695f8201527f6e697469616c697a696e67000000000000000000000000000000000000000000602082015250565b5f614b8b602b8361306d565b9150614b9682614b31565b604082019050919050565b5f6020820190508181035f830152614bb881614b7f565b9050919050565b7f19457468657265756d205369676e6564204d6573736167653a0a3332000000005f82015250565b5f614bf3601c83614730565b9150614bfe82614bbf565b601c82019050919050565b5f614c1382614be7565b9150614c1f8284614452565b60208201915081905092915050565b7f496e76616c6964207369676e6174757265206c656e67746800000000000000005f82015250565b5f614c6260188361306d565b9150614c6d82614c2e565b602082019050919050565b5f6020820190508181035f830152614c8f81614c56565b9050919050565b614c9f816135e0565b82525050565b614cae81614324565b82525050565b5f608082019050614cc75f830187614c96565b614cd46020830186614ca5565b614ce16040830185614c96565b614cee6060830184614c96565b95945050505050565b7f4552433732313a20617070726f766520746f2063616c6c6572000000000000005f82015250565b5f614d2b60198361306d565b9150614d3682614cf7565b602082019050919050565b5f6020820190508181035f830152614d5881614d1f565b9050919050565b7f4552433732313a207472616e7366657220746f206e6f6e2045524337323152655f8201527f63656976657220696d706c656d656e7465720000000000000000000000000000602082015250565b5f614db960328361306d565b9150614dc482614d5f565b604082019050919050565b5f6020820190508181035f830152614de681614dad565b9050919050565b7f546f6b656e20646f6573206e6f742062656c6f6e6720746f20616e79206361745f8201527f65676f7279000000000000000000000000000000000000000000000000000000602082015250565b5f614e4760258361306d565b9150614e5282614ded565b604082019050919050565b5f6020820190508181035f830152614e7481614e3b565b9050919050565b7f4e487b71000000000000000000000000000000000000000000000000000000005f52601260045260245ffd5b5f81519050919050565b5f82825260208201905092915050565b5f614ecc82614ea8565b614ed68185614eb2565b9350614ee681856020860161307d565b614eef8161308b565b840191505092915050565b5f608082019050614f0d5f8301876130f3565b614f1a60208301866130f3565b614f2760408301856134a9565b8181036060830152614f398184614ec2565b905095945050505050565b5f81519050614f5281612df4565b92915050565b5f60208284031215614f6d57614f6c612dc1565b5b5f614f7a84828501614f44565b9150509291505056fea2646970667358221220aef1cd380ba9e20e9461ced6e125db9f876fef9cec3a92e3dfac9b956ac8d4b564736f6c634300081e0033","linkReferences":{}},"methodIdentifiers":{"addCategory(string,(uint256,uint256)[])":"6fb16101","addRangeToCategory(uint256,(uint256,uint256))":"7c4648b1","approve(address,uint256)":"095ea7b3","balanceOf(address)":"70a08231","categories(uint256)":"c6cdbe5e","categoriesCount()":"b7ccc466","getApproved(uint256)":"081812fc","getCategoryRanges(uint256)":"032bcecb","initialize(string,address)":"7ab4339d","isApprovedForAll(address,address)":"e985e9c5","mintTo(address,uint256)":"449a52f8","mintWithSignature(bytes,bytes32,uint256,uint256)":"9d47bc4b","name()":"06fdde03","owner()":"8da5cb5b","ownerOf(uint256)":"6352211e","renounceOwnership()":"715018a6","safeTransferFrom(address,address,uint256)":"42842e0e","safeTransferFrom(address,address,uint256,bytes)":"b88d4fde","setApprovalForAll(address,bool)":"a22cb465","setAuthSigner(address)":"0532bca1","setBaseURI(string)":"55f804b3","supportsInterface(bytes4)":"01ffc9a7","symbol()":"95d89b41","test(string)":"f9fbd554","tokenURI(uint256)":"c87b56dd","transferFrom(address,address,uint256)":"23b872dd","transferOwnership(address)":"f2fde38b","updateCategoryDirectory(uint256,string)":"2ed6a39f","upgradeWithSignature(bytes,bytes32,uint256,uint256,uint256)":"8176a42a"},"id":19}